:020000040800F2
:1000000018040020450100083904000835040008E0
:1000100037040008A30100081309000800000000CD
:100020000000000000000000000000001D050008A6
:10003000A5010008000000003B040008C9050008F5
:100040005F0100085F0100085F0100085F01000810
:100050005F0100085F0100085F0100085F01000800
:100060005F0100085F0100085F0100085F010008F0
:100070005F0100085F0100085F0100085F010008E0
:100080005F0100085F0100085F0100085F010008D0
:10009000110900085F0100085F010008B9010008AC
:1000A0005F0100085F0100085F0100085F010008B0
:1000B0001D0600085F0100085F0100085F010008DD
:1000C0005F0100085F0100085F0100085F01000890
:1000D0005F010008410700085F0100085F01000898
:1000E000A70100085F0100085F0100085F01000828
:1000F0005F0100085F0100085F0100085F01000860
:100100005F0100085F0100085F0100085F0100084F
:100110005F0100085F01000845060008710600083D
:100120005F0100085F0100085F0100085F0100082F
:10013000DFF80CD000F018F8004800475D0900080F
:10014000180400200648804706480047FEE7FEE7FF
:10015000FEE7FEE7FEE7FEE7FEE7FEE7FEE7FEE777
:10016000CD05000831010008064C074D06E0E068A7
:1001700040F0010394E8070098471034AC42F6D3EE
:10018000FFF7DAFFB80C0008D80C000810B500F033
:100190006DF900F031F800F093FABDE8104000F07E
:1001A000E1BAFEE7704710B5202000F015F8BDE871
:1001B0001040012000F00AB810B5202000F00CF823
:1001C000BDE810404FF40040AFF3008001490860E3
:1001D0007047000014040140064A014600201268DE
:1001E000044B0A4014331B680B4202D0002A00D093
:1001F00001207047000401402DE9F84F48248DF894
:1002000003400226DFF874B1ADF8006003258DF8D5
:1002100002506946584600F0B5F88DF803401027A3
:10022000ADF800708DF802506946584600F0AAF803
:100230008DF803404FF02008ADF800808DF8025093
:100240006946584600F09EF88DF803404FF4007957
:10025000ADF800908DF802506946584600F092F8CB
:100260008DF80340B003ADF800008DF802506946E8
:10027000434800F087F88DF803404FF4006AADF86A
:1002800000A08DF802506946584600F07BF88DF8C2
:100290000340F002ADF800008DF80250694638487E
:1002A00000F070F88DF80340F001ADF800008DF813
:1002B00002506946324800F065F88DF8034030037B
:1002C000ADF800008DF8025069462D4800F05AF84C
:1002D0008DF80340ADF800908DF80250694628482B
:1002E00000F050F88DF803407003ADF800008DF871
:1002F00002506946224800F045F88DF80340ADF8F9
:1003000000A08DF8025069461D4800F03BF88DF8BA
:1003100003404020ADF800008DF8025069461848AF
:1003200000F030F88DF80340ADF800708DF8025001
:100330006946134800F026F88DF80340ADF80080B8
:100340008DF8025069460E4800F01CF88DF8034005
:100350008020ADF800008DF802506946084800F092
:1003600011F88DF80340ADF800608DF80250694631
:10037000034800F007F8BDE8F88F000000080140CE
:10038000000C0140F0B5CA78002502F00F03D20638
:1003900001D58A7813430A784FF00F0E12F0FF0F41
:1003A0004FF001021CD004680F8802FA05F63740AE
:1003B000B74211D14FEA850C0EFA0CF724EA070771
:1003C00003FA0CF43C43CF78282F02D0482F02D0F8
:1003D00002E0466100E006616D1C082DE4D3046074
:1003E0000C88FF2C1ED944685FF0000606F1080750
:1003F00002FA07F50F882F40AF420FD14FEA860C63
:100400000EFA0CF7BC4303FA0CF73C43CF78282FC5
:1004100000D14561CF78482F00D10561761C082EA8
:10042000E4D34460F0BD0246002092680A4200D046
:1004300001207047FEE7FEE770477047044A002935
:10044000D16901D0014300E08143D16170470000D0
:1004500000100240044A0029916901D0014300E0E4
:1004600081439161704700000010024010B500F018
:10047000ADF801214FF00210FFF7E0FFBDE810409A
:10048000012144F20D00FFF7E5BF000030B51F4920
:100490004A6812F00C031E4A03D0042B01D0082B2B
:1004A00021D002604A680F231A4C03EA1212A35C9F
:1004B0000268DA4042604B68072505EA1323E35CD3
:1004C00022FA03F383604B6805EAD323E35CDA4046
:1004D000C2604968032303EA9131231F595CB2FBD0
:1004E000F1F1016130BD4A684B6802F470124FF0BF
:1004F000020413F4803F04EB924202D04B689B034A
:1005000001D5054B00E0024B5A43CAE700100240F8
:1005100000127A000400002000093D00704700002E
:100520000CB50021264801910091026842F4803206
:1005300002604FF4A063026802F400320092019A54
:10054000521C0192009A12B9019A9A42F3D10268A0
:10055000920333D5012100911A490A6842F0100232
:100560000A600A6822F003020A600A6842F0020286
:100570000A604168416041684160416841F48061BE
:100580004160416821F47C114160416841F4E81107
:100590004160016841F08071016001688901FCD50A
:1005A000416821F003014160416841F0020141606E
:1005B0004168C1F381010229FAD10CBD00910CBD43
:1005C0000010024000200240704700000F4810B5A4
:1005D000016841F00101016041680D4A114041602C
:1005E00001680C4A11400160016821F4802101601A
:1005F000416821F4FE0141604FF41F018160FFF763
:100600008FFF05494FF00060086010BD00100240E8
:100610000000FFF8FFFFF6FE08ED00E010B5012135
:100620008C07204600F040F8002809D00121204620
:1006300000F034F82046BDE81040012100F031B848
:1006400010BD000010B5094C0121204600F02CF827
:10065000002809D00121204600F020F82046BDE8FE
:100660001040012100F01DB810BD00000010004036
:1006700010B5094C0121204600F016F8002809D0D9
:100680000121204600F00AF82046BDE81040012173
:1006900000F007B810BD000000140040C9430182FB
:1006A0007047C9430182704702460020138A92892D
:1006B0000B4202EA010202D0002A00D0012070475A
:1006C00010B586B04FF48060ADF8100004201A4CCD
:1006D0008DF8130004A92046FFF754FE6015ADF80D
:1006E000100003208DF8120018208DF8130004A9C3
:1006F0002046FFF747FE4FF4165000900020ADF85B
:100700000400ADF80600ADF80800ADF80C000C20B0
:100710000A4CADF80A006946204600F09FF8012215
:1007200040F22551204600F081F80121204600F0DA
:1007300054F806B010BD0000000801400038014028
:1007400010B5074C40F22551204600F050F8002823
:1007500005D02046BDE81040202100F03BB810BD78
:100760000038014030B585B00820ADF81000174DB5
:1007700004248DF8134004A92846FFF703FEADF8C2
:10078000104003208DF8120018208DF8130004A9E2
:100790002846FFF7F7FD4FF4165000900020ADF803
:1007A0000400ADF80600ADF80800ADF80C000C2010
:1007B000074CADF80A006946204600F04FF80121C9
:1007C000204600F00AF805B030BD000000080140E6
:1007D00000440040C943018070470029818902D04C
:1007E00041F4005101E021F400518181704730B59E
:1007F00001F01F0201240025C1F3421304FA02F2A2
:10080000012B0FD0022B0FD0838A4FEA11210088D1
:10081000134204FA01F400EA040001D000B10125FA
:10082000284630BD8389F0E7038AEEE710B5C1F3AF
:10083000421301F01F040121A140012B07D0022B1C
:1008400007D01430002A026805D00A4304E00C30B7
:10085000F8E71030F6E78A43026010BD30B5044671
:10086000008A85B00D464CF6FF710840E9880143C7
:100870002182A1894EF6F3100140A8882A891043ED
:100880006A890A431043A081A08A4FF6FF410840BD
:10089000A9890143A1826846FFF7F8FD19488442FF
:1008A00001D1039800E00298A189090400EBC0017E
:1008B00001EB0010296801D5490000E08900B0FB78
:1008C000F1F06422B0FBF2F109010B096FF0180599
:1008D0006B4300EB8300A3891D044FF0320306D560
:1008E00003EBC000B0FBF2F000F0070005E003EB03
:1008F0000010B0FBF2F000F00F000843208105B0BB
:1009000030BD000000380140C1F30801818070470C
:100910007047FEE702E008C8121F08C1002AFAD19A
:1009200070477047002001E001C1121F002AFBD16F
:10093000704700000849498848434FF0E02148616A
:100940000020886101220A610A69D30701D0D2031D
:10095000FAD508618861704714000020FFF716FC83
:10096000D24DD34C4FF4007A4FF4004B4FF48079C2
:100970004FF4006820212846FFF755FD70B90A2082
:10098000FFF7D8FF20212846FFF74DFD30B90A2098
:10099000FFF7D0FF3121C748FFF7B6FF10212846E7
:1009A000FFF741FD70B90A20FFF7C4FF1021284668
:1009B000FFF739FD30B90A20FFF7BCFF3221BD48EF
:1009C000FFF7A2FF02212846FFF72DFD70B90A208C
:1009D000FFF7B0FF02212846FFF725FD30B90A20B6
:1009E000FFF7A8FF3321B348FFF78EFF5646514665
:1009F0002846FFF718FD70B90A20FFF79BFF314624
:100A00002846FFF710FD30B90A20FFF793FF342185
:100A1000A848FFF779FF80212046FFF704FD70B951
:100A20000A20FFF787FF80212046FFF7FCFC30B942
:100A30000A20FFF77FFF6D219E48FFF765FF202109
:100A40002846FFF7F0FC01283FD110212846FFF788
:100A5000EAFC012839D102212846FFF7E4FC0128ED
:100A600033D131462846FFF7DEFC01282DD1802105
:100A70002046FFF7D8FC012827D10A20FFF75AFFAC
:100A800020212846FFF7CFFC01281ED1102128463F
:100A9000FFF7C9FC012818D102212846FFF7C3FC43
:100AA000012812D131462846FFF7BDFC01280CD1A0
:100AB00080212046FFF7B7FC012806D10A20FFF766
:100AC00039FF35217B48FFF71FFF5E465946204618
:100AD000FFF7A9FC88B90A20FFF72CFF3146204612
:100AE000FFF7A1FC18B961217248FFF70DFF3146ED
:100AF0002046FFF798FC0128F9D146464146284692
:100B0000FFF791FC88B90A20FFF714FF3146284609
:100B1000FFF789FC18B939216648FFF7F5FE314621
:100B20002846FFF780FC0128F9D14FF48057394659
:100B30002046FFF778FC88B90A20FFF7FBFE39460C
:100B40002046FFF770FC18B962215A48FFF7DCFE17
:100B500039462046FFF767FC0128F9D14F46494640
:100B60002046FFF760FC88B90A20FFF7E3FE39460C
:100B70002046FFF758FC18B964214E48FFF7C4FE21
:100B800039462046FFF74FFC0128F9D14FF4804742
:100B900039462046FFF747FC88B90A20FFF7CAFE0E
:100BA00039462046FFF73FFC18B967214148FFF757
:100BB000ABFE39462046FFF736FC0128F9D1314615
:100BC0002046FFF730FC88B90A20FFF7B3FE314614
:100BD0002046FFF728FC18B965213648FFF794FE38
:100BE00031462046FFF71FFC0128F9D1402120465D
:100BF000FFF719FC88B90A20FFF79CFE4021204628
:100C0000FFF711FC18B96C212A48FFF77DFE40213F
:100C10002046FFF708FC0128F9D110212046FFF7F4
:100C200002FC88B90A20FFF785FE10212046FFF755
:100C3000FAFB18B971211F48FFF766FE1021204604
:100C4000FFF7F1FB0128F9D120212046FFF7EBFB4C
:100C500088B90A20FFF76EFE20212046FFF7E3FB4C
:100C600018B96B211348FFF74FFE20212046FFF7EC
:100C7000DAFB0128F9D102212046FFF7D4FB002836
:100C80007FF478AE0A20FFF755FE02212046FFF7D9
:100C9000CAFB18B96A210748FFF736FE0221204631
:100CA000FFF7C1FB0128F9D164E60000000801400C
:100CB000000C014000440040D80C00080000002057
:100CC0001800000014090008F00C000818000020AB
:100CD00000040000240900080204060800000000C7
:100CE000010203040102030406070809090028237E
:0400000508000131BD
:00000001FF
