:020000040802F0
:10000000580400209D010208450B02081D0B020840
:10001000410B0208A70202087F1502080000000039
:10002000000000000000000000000000DD0D0208DC
:10003000E909020800000000B3010208B501020846
:10004000B7010208B7010208B7010208B7010208A8
:10005000B7010208B7010208EB090208030A020807
:10006000050A0208070A0208090A0208B70102087D
:10007000B7010208E7090208B7010208B701020840
:10008000B7010208B7010208B7010208B701020868
:10009000AD020208B7010208B70102080B0A020804
:1000A000B70102085D0F0208B7010208B701020894
:1000B0005F0F0208990F0208A90F0208B701020892
:1000C000B7010208B7010208B7010208B701020828
:1000D000B701020809120208A1120208B7120208A9
:1000E000ED090208B7010208B7010208B7010208CA
:1000F000C90F0208B7010208B7010208B7010208D8
:10010000B7010208B7010208C50F0208B7010208CB
:100110003511020849110208B7010208C70F020889
:10012000B7010208B7010208B7010208B7010208C7
:10013000B7010208B7010208B7010208B7010208B7
:10014000B7010208B7010208B7010208B7010208A7
:10015000B7010208B7010208B7010208B701020897
:10016000B7010208B7010208B7010208B701020887
:10017000B7010208B7010208B7010208B701020877
:10018000B7010208B7010208DFF80CD000F04AF806
:10019000004800479D19020858040020064880477F
:1001A00006480047FEE7FEE7FEE7FEE7FEE7FEE75C
:1001B000FEE7FEE7FEE7FEE7F50E0208890102080A
:1001C0002DE9F05F0546002092469B46884606468C
:1001D000814640241BE0284641464746224600F01F
:1001E00042F853465A46C01A914110D31146184658
:1001F000224600F029F82D1A67EB01084F462246E7
:100200000120002100F020F817EB00094E41201ECC
:10021000A4F10104DFDC484631462A464346BDE8E6
:10022000F09F0000064C074D06E0E06840F0010337
:1002300094E8070098471034AC42F6D3FFF7A8FFC4
:10024000841B0208A41B0208202A04DB203A00FABF
:1002500002F1002070479140C2F1200320FA03F31D
:10026000194390407047202A04DB203A21FA02F01B
:100270000021704721FA02F3D040C2F120029140E0
:1002800008431946704710B500F0FCFC00F0C4FBB1
:1002900000F05CFF00F0BAFF01F00CF800F0F8FE8F
:1002A00000F05EFE10BD00BFFEE7000010B50221A9
:1002B000064800F011F9012807D1054A002103483A
:1002C00000F02DFA01200349087010BD00640040C1
:1002D000440000200000002000B585B00121084640
:1002E00000F09AFC0121480600F0A6FC09220B212F
:1002F000254800F0EFFB09220C21234800F0EAFB1F
:1003000000208DF8120001208DF8130002208DF8D6
:1003100011008DF81000C002039003A91A4800F0E4
:1003200091FB02208DF810008002039003A916486B
:1003300000F088FB01208DF807008DF808008DF88B
:10034000090000208DF80A008DF806008DF80B00DA
:1003500003208DF8040001208DF805008DF80300BE
:100360000620ADF8000001208DF80200694607481C
:1003700000F04BF900F0F6FB01220221034800F0E7
:100380003BF905B000BD00000000024000640040E1
:1003900010B50021837A012202FA03F13D4A126866
:1003A00042F001023B4B1A603A4A1C3212688A43FF
:1003B000384B1C331A60027BCAB9364A0C321268B9
:1003C0008A43344B0C331A604288C38842EA0343A1
:1003D000304A4032847A42F834300288838842EAD4
:1003E00003432C4A4032847A02EBC4025360027BFE
:1003F000012A19D1274A0C3212680A43254B0C33C3
:100400001A604288038842EA0343224A4032847ACF
:1004100042F83430C288838842EA03431D4A40329E
:10042000847A02EBC4025360C27A3AB9194A121DA7
:1004300012688A43174B1B1D1A6006E0154A121DED
:1004400012680A43134B1B1D1A60028932B9114A04
:10045000143212688A430F4B14331A600289012A3E
:1004600006D10C4A143212680A430A4B14331A603C
:10047000427B012A06D1074A1C3212680A43054B07
:100480001C331A60034A126822F00102014B1A6001
:1004900010BD0000006600401FB501208DF80A0065
:1004A0008DF80C0000208DF80B00ADF8080001203D
:1004B0008DF80D000020ADF800004FF48050ADF82D
:1004C00002004FF6FF70ADF80400ADF80600684674
:1004D000FFF75EFF1FBD000070B504460D46002605
:1004E00060692840002871D0B5F5807F5CD010DCB1
:1004F000082D35D006DC012D20D0022D24D0042D6E
:1005000072D127E0102D31D0202D35D0402D6BD168
:1005100038E0B5F5004F60D009DCB5F5007F49D073
:10052000B5F5806F4CD0B5F5006F5DD14FE0B5F5F6
:10053000803F2DD0B5F5003F56D12FE0A0682D4962
:1005400000F048FA064651E0E068032100F042FA64
:1005500006464BE0E068082100F03CFA064645E01C
:10056000E068102100F036FA06463FE020690321DA
:1005700000F030FA064639E02069082100F02AFA36
:10058000064633E02069102100F024FA06462DE0EB
:100590006068082100F01EFA064627E06068102116
:1005A00000F018FA064621E0A069012100F012FAD5
:1005B00006461BE0A069022100F00CFA064615E091
:1005C000A069042100F006FA06460FE00FE0A069DA
:1005D000702100F0FFF9064608E06068042100F091
:1005E000F9F9064602E0FFE7002600BF00E000261A
:1005F000304670BD010101001AB143690B434361EC
:1006000002E043698B434361704730B502460020E6
:100610000023146824F002041460146844F00104F8
:10062000146000E05B1C546804F001041CB94FF630
:10063000FF74A342F6D1546804F001040CB9002001
:100640006CE08C79012C04D1146844F080041460AF
:1006500003E0146824F080041460CC79012C04D1E8
:10066000146844F04004146003E0146824F040046B
:1006700014600C7A012C04D1146844F02004146036
:1006800003E0146824F0200414604C7A012C04D197
:10069000146844F01004146003E0146824F010049B
:1006A00014608C7A012C04D1146844F0080414609E
:1006B00003E0146824F008041460CC7A012C04D1FF
:1006C000146844F00404146003E0146824F0040483
:1006D00014608C78A407CD7844EA05640D7944EA67
:1006E00005444D7944EA05540D886D1E2C43D461B0
:1006F000146824F001041460002300E05B1C5468BB
:1007000004F001041CB14FF6FF74A342F6D1546803
:1007100004F001040CB1002000E0012030BD10B550
:1007200000F5D87303EB01131B6803F00403137285
:10073000137A53B900F5D87303EB01131B6840F229
:10074000FF7404EA5353136009E000F5D87303EB18
:1007500001131B686FF0604404EAD303536000F593
:10076000D87303EB01131B6803F00203537200F507
:10077000D87303EB01135B6803F00F03937200F56A
:10078000D87303EB01135B681B0AD37400F5D873AD
:1007900003EB01139B68D37200F5D87303EB0113CD
:1007A0009B681C0A147300F5D87303EB01139B6854
:1007B0001C0C547300F5D87303EB01139B681B0EDC
:1007C000937300F5D87303EB0113DB68D37300F563
:1007D000D87303EB0113DB681C0A147400F5D8739B
:1007E00003EB0113DB681C0C547400F5D87303EBA6
:1007F0000113DB681B0E937421B9C36843F0200317
:10080000C36003E0036943F02003036110BD10B52A
:1008100002460020936803F08063B3F1806F00D13B
:1008200010E0936803F00063B3F1006F01D1012081
:1008300008E0936803F08053B3F1805F01D1022098
:1008400000E00420042874D002F5C07303EB001309
:100850001B6803F0010402F5C07303EB00131C6076
:100860000B7A7BB94B7A0C8843EA445302F5C07487
:1008700004EB00142468234302F5C07404EB001455
:10088000236010E00B7A4C6843EAC4034C7A23439C
:1008900002F5C07404EB00142468234302F5C0740D
:1008A00004EB001423608B7A03F00F038B7202F5C4
:1008B000C07303EB00135B6823F00F0402F5C073F1
:1008C00003EB00135C6002F5C07303EB00135B687D
:1008D0008C7A234302F5C07404EB001463608B7BB5
:1008E0001C064B7B44EA03440B7B44EA0323CC7A8B
:1008F000234302F5C07404EB0014A3608B7C1C0638
:100900004B7C44EA03440B7C44EA0323CC7B234323
:1009100002F5C07404EB0014E36002F5C07303EB4E
:1009200000131B6843F0010402F5C07303EB0013CE
:100930001C6010BD10B50246002321B1012907D06B
:1009400002290FD109E090681D4C00EA04030BE076
:1009500090681C4C00EA040306E090681A4C00EA18
:10096000040301E0002300BF00BF184C181BA34282
:1009700016D007DC83B16FF08060184470B1022894
:1009800018D111E0B0F5007F10D0114C204448B1CF
:10099000B0F5003F0ED10BE002230DE000230BE089
:1009A000002309E0002307E0012305E0012303E021
:1009B000012301E0002300BF00BFD8B210BD00003A
:1009C00003000004000300080000031000010008F9
:1009D0000001FFF70246002002EA01030BB10120EB
:1009E00000E00020704770477047704710B54FF423
:1009F000804000F013F818B14FF4004000F006F802
:100A000010BD7047704770477047704701490860D4
:100A100070470000143C0140704700000146002070
:100A20000022074B1B6803EA0102054B14331B68C5
:100A30000B4013B10AB1012000E000207047000014
:100A4000003C0140F0B50A4600210023002400BF0D
:100A50003DE0012505FA01F3156805EA03049C420F
:100A600034D105684F000326BE40B54305601579B3
:100A70004E00B5400668354305601579012D02D05A
:100A80001579022D16D185684F000326BE40B54367
:100A9000856055794E00B540866835438560456868
:100AA00001268E40B5434560456896798E40B6B2C2
:100AB00035434560C5684F000326BE40B543C56059
:100AC000D5794E00B540C6683543C560491C10292C
:100AD000BFD3F0BDF0B5002300244D07ED0E02FAA0
:100AE00005F3CE1000F1200555F826504E07F70EFD
:100AF0000F26BE40B543CF1000F1200646F8275020
:100B0000CE1000F1200555F8265045EA0304CE101A
:100B100000F1200545F82640F0BD000004E07B22EE
:100B200002A1064800F0A4FCF9E7000048617264E5
:100B30004661756C743D25640A0000000010014098
:100B400000BFFEE710B5802000F024F948B1012075
:100B500000F02CF90121182000F030F9802000F07D
:100B60008BF810BD08B54FF4A06000F04BF81420CE
:100B70008DF8000001208DF801008DF802008DF83D
:100B80000300684600F002F808BD000070B50021BF
:100B900000230F22C4781CB3174C246804F4E064CB
:100BA000C4F5E064C4F30721C1F10404E3B20A41CF
:100BB00044789C40E1B28478144021430C07210E14
:100BC0000E4C05786155047804F01F050124AC40F3
:100BD00005786D11AD0005F1E025C5F8004109E08B
:100BE000047804F01F050124AC40054D0678761109
:100BF00045F8264070BD00000CED00E000E400E088
:100C000080E100E002490143024A116070470000A0
:100C10000000FA050CED00E029B1064A1268024313
:100C2000044B1A6004E0034A12688243014B1A60C5
:100C3000704700003038024029B1064A126802436A
:100C4000044B1A6004E0034A12688243014B1A60A5
:100C5000704700004038024029B1064A126802433A
:100C6000044B1A6004E0034A12688243014B1A6085
:100C70007047000044380240014908707047000086
:100C80000E38024010B500F035F901211F20FFF7A2
:100C9000C3FF01210348FFF7DFFF01210248FFF7EF
:100CA000CBFF10BD134001006F000E02F0B5002114
:100CB00000220024022500260223324F3F6807F05D
:100CC0000C0121B1042905D0082937D105E02E4FA8
:100CD000076036E02D4F076033E02A4F3F1F3F6823
:100CE000C7F38056274F3F1F3F6807F03F036EB1A1
:100CF000264FB7FBF3F7DFF88CC0ACF1040CDCF83F
:100D000000C0CCF3881C07FB0CF40CE01E4FB7FBB3
:100D1000F3F7DFF870C0ACF1040CDCF800C0CCF3E2
:100D2000881C07FB0CF4174F3F1F3F68C7F30147B0
:100D30007F1C7D00B4FBF5F7076002E0124F0760EF
:100D400000BF00BF0F4F3F6807F0F0010909104FC7
:100D50007A5C0768D74047600A4F3F6807F4E05164
:100D6000890A0B4F7A5C4768D7408760054F3F6818
:100D700007F46041490B064F7A5C4768D740C7606B
:100D8000F0BD0000083802400024F40000127A0090
:100D90001800002001460020034A12680A400AB1E8
:100DA000012000E0002070470C3802400021024A78
:100DB00011701146087070470238024029B1064A86
:100DC00012780243044B1A7004E0034A12788243FB
:100DD000014B1A70704700000D3802407047000048
:100DE0000CB50020019000903448006840F4803039
:100DF0003249086000BF3148006800F400300090BC
:100E00000198401C0190009818B90198B0F5A06FA6
:100E1000F1D12A48006800F4003010B101200090A0
:100E200001E0002000900098012846D1234840307E
:100E3000006840F080502149403108602048006837
:100E400040F480401E4908601C48083000681B4977
:100E5000083108600846006840F400400860084611
:100E6000006840F4A05008601648091F0860081F79
:100E7000006840F08070091F086000BF0F480068DC
:100E800000F000700028F9D040F205600E490860BB
:100E90000A480830006820F003000849083108605B
:100EA0000846006840F00200086000BF03480830B0
:100EB000006800F00C000828F8D10CBD0038024092
:100EC0000070004008544007003C0240042808D14C
:100ED0004FF0E021096941F004014FF0E022116177
:100EE00007E04FF0E021096921F004014FF0E02212
:100EF0001161704710B51548006840F4700013493F
:100F000008601348006840F00100114908600020A3
:100F10000F49083108600E4800680E4908400C4926
:100F200008600D48091D0860081F006820F4802033
:100F3000091F0860002006490C310860FFF750FFC8
:100F40004FF0006001498039086010BD88ED00E075
:100F500000380240FFFFF6FE103000247047704753
:100F60000EB51820019040F24730ADF80000002087
:100F7000ADF80800ADF802006946064800F046F8F2
:100F80000121044800F021F801221146014800F037
:100F900033F80EBD0004004010B50121014800F0F7
:100FA0001AF810BD0004004010B50121044800F0FB
:100FB00012F818B10121024800F00AF810BD000033
:100FC00000080040704770477047CA43028270476C
:100FD000CA430282704730B5024600200023002435
:100FE000158A05EA0103958905EA010413B10CB1DC
:100FF000012000E0002030BD1AB183890B438381BA
:1010000002E083898B4383817047000000220288BD
:10101000184B98420ED0184B98420BD0B0F1804F2D
:1010200008D0164B984205D0154B984202D0154B6C
:10103000984204D14FF68F731A404B881A43124BD3
:10104000984207D0114B984204D04FF6FF431A4004
:101050000B891A4302804B68C3620B880385054BDA
:10106000984202D0044B984201D18B7A0386012327
:1010700083827047000001400004014000040040EA
:1010800000080040000C0040001000400014004028
:1010900000B587B008220A212448FFF71BFD08226B
:1010A0000B212248FFF716FD4FF4806005900320C6
:1010B0008DF8190002208DF8180000208DF81A0014
:1010C00001208DF81B0005A91848FFF7BBFC4FF461
:1010D0000060059002208DF8180005A91348FFF75D
:1010E000B1FC4FF4E13001900020ADF80C00ADF8F8
:1010F0000800ADF80A00ADF810000C20ADF80E00A5
:1011000001A90B4800F04AF9012240F22551084894
:1011100000F01EF90121064800F0CEF8012240211E
:10112000034800F0D5F807B000BD000000080240F9
:10113000004C004010B540F22551024800F0DEF8A6
:1011400010BD0000004C00407047000000B587B0A3
:10115000072209212A48FFF7BDFC07220A21284857
:10116000FFF7B8FC4FF40070059003208DF81900CC
:1011700002208DF8180000208DF81A0001208DF84B
:101180001B0005A91E48FFF75DFC4FF48060059029
:1011900002208DF8180005A91948FFF753FC4FF4F9
:1011A000E13001900020ADF80C00ADF80800ADF87A
:1011B0000A00ADF810000C20ADF80E0001A911488E
:1011C00000F0ECF84FF4A060FFF71CFD25208DF82F
:1011D000000001208DF801008DF802008DF8030059
:1011E0006846FFF7D3FC012240F22551054800F084
:1011F000AFF80121034800F05FF807B000BD000020
:1012000000000240001001407047000000B587B0A8
:10121000072205212048FFF75DFC072206211E4812
:10122000FFF758FC2020059003208DF819000220BC
:101230008DF8180000208DF81A0001208DF81B0091
:1012400005A91548FFF7FEFB4020059002208DF808
:10125000180005A91048FFF7F5FB4FF4E1300190A5
:101260000020ADF80C00ADF80800ADF80A00ADF8AC
:1012700010000C20ADF80E0001A9084800F08EF80F
:10128000012240F22551054800F062F8012103488F
:1012900000F012F807B000BD000C0240004400400E
:1012A00010B540F22551024800F028F810BD0000AA
:1012B000004400407047704721B1828942F40052D7
:1012C000828104E082894DF6FF731A408281704763
:1012D0001AB1838A0B43838202E0838A8B43838221
:1012E000704702460020B1F5007F00D100BF13888F
:1012F0000B400BB1012000E00020704770B50246A2
:10130000002400230025002040F66A16B14200D1D7
:1013100000BFC1F3421501F01F03012606FA03F3D3
:10132000012D02D19689334006E0022D02D1168AA2
:10133000334001E0968A33400C12012606FA04F489
:101340001688344013B10CB1012000E0002070BDBC
:10135000F0B50346002400260025002040F66A1759
:10136000B94200D100BF1846C1F3421401F01F0674
:10137000012707FA06F5012C01D10C3004E0022CFC
:1013800001D1103000E014301AB107682F43076014
:1013900002E00768AF430760F0BD00002DE9FF479A
:1013A00005460E460024A14600BFA046B08900B104
:1013B00000BF2C8A24F44054F08804432C82AC896A
:1013C00041F20C608443B088318908437189084335
:1013D0000443AC81AC8A24F44074B0890443AC82E9
:1013E0006846FFF763FC2048854202D01F488542CB
:1013F00002D1DDF80C9001E0DDF80890A88900F436
:10140000004040B109EBC90000EB09103168490008
:10141000B0FBF1F707E009EBC90000EB09103168F8
:101420008900B0FBF1F76420B7FBF0F0040120095C
:10143000642101FB1078A88900F4004040B13220FB
:1014400000EBC800B0FBF1F000F00700044308E037
:10145000322000EB08106421B0FBF1F000F00F0027
:1014600004432C81BDE8FF870010014000140140B7
:101470000FB470B586B006460CA8019073E00B98C7
:1014800000785C281CD10B98401C0B9000786E28CB
:1014900009D072280FD10D21304600F06CF80B985E
:1014A000401C0B900BE00A21304600F064F80B98CA
:1014B000401C0B9003E00B98401C0B9000BF4BE0CE
:1014C0000B980078252840D10B98401C0B90007891
:1014D000642818D0732833D1019810C801900BE00C
:1014E0002178304600F047F800BF40213046FFF732
:1014F000F8FE0028F9D0641C20780028F0D10B9861
:10150000401C0B9020E0019820C801900A2202A9FB
:10151000284600F011FA02AC0BE02178304600F0CA
:101520002AF800BF40213046FFF7DBFE0028F9D043
:10153000641C20780028F0D10B98401C0B9003E02D
:101540000B98401C0B9000BF06E00B9810F8011B95
:101550000B90304600F00FF800BF40213046FFF7F7
:10156000C0FE0028F9D00B980078002887D106B07B
:1015700070BC5DF814FBC1F308028280704700BFA5
:10158000FEE700000FB4054B10B503A9044A02980A
:1015900000F018F810BC5DF814FB000015190208E3
:1015A0002C00002002E008C8121F08C1002AFAD14E
:1015B00070477047002001E001C1121F002AFBD1D3
:1015C000704700002DE9FF4F8DB09B460F46044643
:1015D000002606E025280BD05A460F999047641C38
:1015E000761C20780028F5D111B03046BDE8F08F88
:1015F0000025A8460122984900E0054314F8013F60
:10160000203B02FA03F00842F7D120782E2817D1A8
:1016100014F8010F45F004052A280ED06FF02F02B0
:101620002078A0F1300109290AD808EB880102EBE3
:10163000410100EB0108641CF2E757F8048B641CBD
:1016400020786C280DD004DC4C2812D06A2811D1E7
:1016500004E074280DD07A280CD10AE045F4001576
:1016600007E0617845F48015814202D1641C05F5DC
:101670008015641C2278692A45D008DC002AB3D082
:10168000582A69D0632A10D0642A08D13BE0702A16
:1016900067D0732A13D0752A5CD0782A5CD01046A4
:1016A0005A460F999047761CD3E017F8040B8DF833
:1016B000000000208DF80100E946012003E057F802
:1016C000049B4FF0FF3069074FF0000501D40AE09A
:1016D0006D1C45450DDA8542FADB19F80510002925
:1016E000F6D106E06D1C8542FCDB19F805100029D7
:1016F000F8D12E4404E019F8010B5A460F9990478F
:101700006D1EF8D2A5E00A200021CDE90801C5F33D
:10171000025002280DD001CFC117031E71F1000342
:101720000DDA4FF0000CD0EB0C006CEB01012D2317
:1017300008E0FF1D27F00707F7E80201EDE72B059A
:1017400004D52B238DF8283001233BE0EB0739D05B
:101750002023F7E70A2000E010200021CDE908014E
:1017600007E01020002145F00405CDE908014FF005
:101770000808C5F3025002280FD001CF00214FF016
:10178000000A2B071FD5702A0DD0DDE908C38CF0A5
:10179000100C5CEA030C0CD015E0FF1D27F00707C6
:1017A000F7E80201EBE740228DF828204FF0010A0C
:1017B0000BE050EA010306D030238DF828308DF875
:1017C000292002239A46582A04D024A20DF1200988
:1017D0000B9209E026A2F9E7DDE90823FEF7F0FC09
:1017E0000B9B9B5C09F8013D50EA0102F4D1ADEB83
:1017F000090020300890680701D44FF001080899CB
:10180000884502DDA8EB010000E0002080460025AD
:1018100006E00AA85A46405D0F9990476D1C761C59
:101820005545F6DB04E030205A460F999047761C68
:10183000B8F10001A8F10108F5DC05E019F8010B89
:101840005A460F999047761C0899481E089000291F
:10185000F4DC641CC5E60000092801003031323395
:1018600034353637383961626364656600000000DC
:1018700030313233343536373839414243444546C6
:101880000000000010B56FF00400FFF71FFB0A48CE
:1018900000680A49B0FBF1F0094908700846007871
:1018A00000EB4001C1EBC0104FF6FF7101EAC00030
:1018B0000449088010BD00000400002000127A00D6
:1018C000280000202A0000200146114A12884A43BD
:1018D0004FF0E0235A6100229A611A46126942F0E1
:1018E00001021A6100BF4FF0E022106900F001020E
:1018F0001AB100F48032002AF5D04FF0E0221269CC
:1019000022F001024FF0E0231A6100229A61704731
:101910002A00002070B504460D46E1B20548FFF7E5
:101920002AFE00BF0348008800F080000028F9D09C
:10193000204670BD00100140F0B503460D46164626
:10194000002729460A2E03D0002008702846F0BD43
:1019500033B9302001F8010B002008702846F6E763
:10196000002B03DA2D2001F8010B5B4242F21072CA
:101970000DE093FBF2F404B937B104F1300001F843
:10198000010B04FB123301270A2092FBF0F2002A1C
:10199000EFDC002008702846D9E700000024FEF79D
:1019A00072FCFFF76FFFFEF797FCFEF775FD3648F8
:1019B0003649086036A13C48FFF75AFD63E03B48D2
:1019C0003B4908603B484860042008720020487288
:1019D00008208872002404E035480B300455601C50
:1019E000C4B2082CF8DB34A0FFF7CCFD30493648F0
:1019F000FEF70DFF0546042D0ED000BF29463248E4
:101A0000FEF798FF0128F9D14FF47A70FFF75CFFD9
:101A10002EA0FFF7B7FD02E030A0FFF7B3FD33487B
:101A2000007801282FD13248016832A0FFF7AAFDC3
:101A30002F48416834A0FFF7A5FD2D48017A37A053
:101A4000FFF7A0FD2A48417A39A0FFF79BFD2848FF
:101A5000817A3CA0FFF796FD2548C17C3EA0FFF7A8
:101A600091FD002408E022480B30025D21463FA092
:101A7000FFF788FD601CC4B21D48807AA042F2DCEA
:101A800000201A4908709AE70000020808ED00E0FB
:101A9000B0E0BCB6D1A7BAC520A3BA3136323032D5
:101AA00037330D0A00000000001001400002111140
:101AB00030000020141314130D0A20D7BCB1B8B79E
:101AC000A2CBCDCAFDBEDD00006400400D0A20B7E8
:101AD000A2CBCDCAFDBEDDCDEAB3C9000D0A206E92
:101AE0006F206D61696C20626F780000000000203B
:101AF000440000200D0A43414E2052782E53746456
:101B00004964203D257800000D0A43414E2052785B
:101B10002E4578744964203D257800000D0A434124
:101B20004E2052782E494445203D25780000000083
:101B30000D0A43414E2052782E525452203D2578B2
:101B4000000000000D0A43414E2052782E444C43C1
:101B5000203D2578000000000D0A43414E205278B8
:101B60002E464D49203D2578000000000D0A4341D6
:101B70004E2052782E446174615B25645D203D25C2
:101B800078000000A41B02080000002030000000C4
:101B9000A4150208D41B020830000020280400000D
:101BA000B415020800000000007A030A00000000DB
:101BB00000000000010203040607080900000000FD
:101BC00001020304010203040607080900000000E3
:041BD0000000000011
:040000050802018963
:00000001FF
