:020000040800F2
:10000000300400209D01000801070008A503000836
:10001000FD060008350200087B0E00080000000005
:100020000000000000000000000000009909000826
:100030003B02000800000000B3010008B501000801
:10004000B7010008B7010008B7010008B7010008B0
:10005000B7010008B70100083D020008550200087A
:1000600057020008590200085B020008B7010008A7
:10007000B7010008B7010008B7010008B701000880
:10008000B7010008B7010008B7010008B701000870
:1000900039020008B7010008B70100085D02000836
:1000A000B7010008190B0008B7010008B7010008E4
:1000B0001B0B00081F0B0008210B0008B7010008EC
:1000C000B7010008B7010008B7010008B701000830
:1000D000B7010008150C0008170C00081B0C0008DD
:1000E0003F020008B7010008B7010008B701000887
:1000F0004D0B0008B7010008B7010008B701000860
:10010000B7010008B7010008490B0008B701000853
:10011000770B0008790B0008B70100084B0B0008AB
:10012000B7010008B7010008B7010008B7010008CF
:10013000B7010008B7010008B7010008B7010008BF
:10014000B7010008B7010008B7010008B7010008AF
:10015000B7010008B7010008B7010008B70100089F
:10016000B7010008B7010008B7010008B70100088F
:10017000B7010008B7010008B7010008B70100087F
:10018000B7010008B7010008DFF80CD000F02EF826
:1001900000480047791100083004002006488047D5
:1001A00006480047FEE7FEE7FEE7FEE7FEE7FEE75C
:1001B000FEE7FEE7FEE7FEE7B10A00088901000856
:1001C00030B50B46014600202022012409E021FA27
:1001D00002F59D4205D303FA02F5491B04FA02F524
:1001E0002844151EA2F10102F1DC30BD064C074D7A
:1001F00006E0E06840F0010394E8070098471034F7
:10020000AC42F6D3FFF7C4FFF8110008181200083B
:1002100010B500F015FB00F03FF800F027F800F0F3
:100220007FFA00F0ABFC00F0F7FC00F077FC00F088
:1002300077FA10BD00BFFEE770477047704710B5F2
:100240004FF4804000F014F818B14FF4004000F073
:1002500007F810BD7047704770477047704700003F
:100260000149086070470000143C014070470000DD
:10027000014600200022074B1B6803EA0102054BE0
:1002800014331B680B4013B10AB1012000E00020B9
:1002900070470000003C01401CB54FF40060009026
:1002A00000208DF804008DF8060003208DF805006D
:1002B00000208DF807006946014800F003F81CBDD6
:1002C00000040240F0B50A4600210023002400BFCC
:1002D0003DE0012505FA01F3156805EA03049C4297
:1002E00034D105684F000326BE40B543056015793B
:1002F0004E00B5400668354305601579012D02D0E2
:100300001579022D16D185684F000326BE40B543EE
:10031000856055794E00B5408668354385604568EF
:1003200001268E40B5434560456896798E40B6B249
:1003300035434560C5684F000326BE40B543C560E0
:10034000D5794E00B540C6683543C560491C1029B3
:10035000BFD3F0BDF0B5002300244D07ED0E02FA27
:1003600005F3CE1000F1200555F826504E07F70E84
:100370000F26BE40B543CF1000F1200646F82750A7
:10038000CE1000F1200555F8265045EA0304CE10A2
:1003900000F1200545F82640F0BD42694A4042611F
:1003A0007047000004E07B2202A1064800F0DEFC5A
:1003B000F9E70000486172644661756C743D25641C
:1003C0000A0000000010014010B500200F4908602D
:1003D0000F48006820F440300D4908600846006866
:1003E00040F48030086000200A49C1F8A0020A20C9
:1003F00000F058FE0120054908600A2000F052FE76
:1004000000200449C1F8A40210BD0000A4824042AB
:1004100000040240008040421CB50121022000F08F
:10042000D9F94FF44070009001208DF804000020AD
:100430008DF8060003208DF8050001208DF80700D7
:1004400069460548FFF73EFF01200449086004495A
:10045000C1F8A0021CBD000000040240A48240427A
:100460000080404210B500200F4908600F48006826
:1004700020F440300D4908600846006840F48030A0
:10048000086001200A49C1F8A0020A2000F00AFE13
:100490000120054908600A2000F004FE00200449FC
:1004A000C1F8A40210BD0000A48240420004024032
:1004B0000080404270B5054600241648006820F4CC
:1004C000403014490860084600680860002616E0BD
:1004D0000020114908600A2000F0E4FD01200F49C6
:1004E000C1F8A4026006040E0B488438006808B105
:1004F000601CC4B2052000F0D5FD701CC6B2082EE9
:10050000E6DB15B9FFF7AEFF01E0FFF75DFF204620
:1005100070BD000000040240A482404200804042BE
:1005200070B504460D46002600F052F8204600F053
:100530001BF800F099F8284600F016F800F094F83F
:1005400000F046F8611CC8B200F00EF800F08CF81C
:10055000322000F0A7FD0020FFF7ACFF064600F0B8
:100560005DF8304670BD000070B50446154800685F
:1005700020F44030134908600846006840F4803099
:100580000860002010490860002517E0E0090E49C6
:10059000091F08606006040E0A2000F083FD012098
:1005A0000A49C1F8A4020A2000F07CFD0020064997
:1005B00008600A2000F076FD681CC5B2082DE5DB56
:1005C00070BD000000040240A4824042008040420E
:1005D00010B50F48006820F440300D490860084607
:1005E000006840F48030086001200A4908600A4928
:1005F000C1F8A4020A2000F055FD0020054908605A
:100600000A2000F04FFD00200349C1F8A40210BDEC
:1006100000040240A08240420080404210B50F48D2
:10062000006820F440300D4908600846006840F436
:100630008030086000200A4908600A49C1F8A00219
:100640000A2000F02FFD0120054908600549C1F886
:10065000A0020A2000F026FD10BD000000040240A8
:10066000A48240420080404210B500241448006833
:1006700020F44030124908600846006808600120F4
:1006800010490860062000F00DFD01200E49C1F858
:10069000A402062000F006FD07E0601CC4B2FA2C9C
:1006A00003DDFFF7BBFF012010BD0648803800685E
:1006B0000028F2D10349091D086000BFF4E70000DB
:1006C00000040240A08240420080404270B50646CD
:1006D0000C461546FFF77CFF3046FFF745FFFFF756
:1006E000C3FF2046FFF740FFFFF7BEFF2846FFF796
:1006F0003BFFFFF7B9FFFFF791FF70BD00BFFEE7BB
:1007000010B5802000F024F948B1012000F02CF948
:100710000121182000F030F9802000F08BF810BD86
:1007200008B54FF4A06000F04BF825208DF80000CC
:1007300000208DF801008DF8020001208DF80300E3
:10074000684600F001F808BD70B5002100230F22B3
:10075000C4781CB3174C246804F4E064C4F5E06466
:10076000C4F30721C1F10404E3B20A4144789C4078
:10077000E1B28478144021430C07210E0E4C057819
:100780006155047804F01F050124AC4005786D1113
:10079000AD0005F1E025C5F8004109E0047804F05A
:1007A0001F050124AC40054D0678761145F826401A
:1007B00070BD00000CED00E000E400E080E100E02E
:1007C00002490143024A1160704700000000FA0527
:1007D0000CED00E029B1064A12680243044B1A608E
:1007E00004E0034A12688243014B1A60704700001C
:1007F0003038024029B1064A12680243044B1A609D
:1008000004E0034A12688243014B1A6070470000FB
:100810004038024029B1064A12680243044B1A606C
:1008200004E0034A12688243014B1A6070470000DB
:100830004438024001490870704700000E380240F9
:1008400010B500F035F901211F20FFF7C3FF01218A
:100850000348FFF7DFFF01210248FFF7CBFF10BD80
:10086000134001006F000E02F0B5002100220024A9
:10087000022500260223324F3F6807F00C0121B108
:10088000042905D0082937D105E02E4F076036E04E
:100890002D4F076033E02A4F3F1F3F68C7F3805654
:1008A000274F3F1F3F6807F03F036EB1264FB7FB4E
:1008B000F3F7DFF88CC0ACF1040CDCF800C0CCF32B
:1008C000881C07FB0CF40CE01E4FB7FBF3F7DFF8B6
:1008D00070C0ACF1040CDCF800C0CCF3881C07FB42
:1008E0000CF4174F3F1F3F68C7F301477F1C7D0083
:1008F000B4FBF5F7076002E0124F076000BF00BFCE
:100900000F4F3F6807F0F0010909104F7A5C076844
:10091000D74047600A4F3F6807F4E051890A0B4F00
:100920007A5C4768D7408760054F3F6807F46041AD
:10093000490B064F7A5C4768D740C760F0BD00009E
:10094000083802400024F40000127A00140000204D
:1009500001460020034A12680A400AB1012000E063
:10096000002070470C3802400021024A11701146E5
:10097000087070470238024029B1064A12780243D3
:10098000044B1A7004E0034A12788243014B1A7038
:10099000704700000D380240704700000CB5002081
:1009A000019000903448006840F48030324908607B
:1009B00000BF3148006800F4003000900198401CEE
:1009C0000190009818B90198B0F5A06FF1D12A48AC
:1009D000006800F4003010B10120009001E0002018
:1009E00000900098012846D123484030006840F02C
:1009F00080502149403108602048006840F4804020
:100A00001E4908601C48083000681B49083108600E
:100A10000846006840F4004008600846006840F45A
:100A2000A05008601648091F0860081F006840F0C1
:100A30008070091F086000BF0F48006800F0007058
:100A40000028F9D040F205600E4908600A480830D5
:100A5000006820F003000849083108600846006873
:100A600040F00200086000BF03480830006800F052
:100A70000C000828F8D10CBD00380240007000407E
:100A800008544007003C0240042808D14FF0E02100
:100A9000096941F004014FF0E022116107E04FF0D5
:100AA000E021096921F004014FF0E0221161704753
:100AB00010B51548006840F47000134908601348E9
:100AC000006840F001001149086000200F4908311A
:100AD00008600E4800680E4908400C4908600D483F
:100AE000091D0860081F006820F48020091F0860A5
:100AF000002006490C310860FFF750FF4FF00060FE
:100B000001498039086010BD88ED00E000380240DE
:100B1000FFFFF6FE103000247047704770477047A3
:100B200010B50121064800F015F840B14FF480518E
:100B30000448FFF732FC0121014800F008F810BD1D
:100B40000008004000040240704770477047CA43E5
:100B50000282704730B50246002000230024158A27
:100B600005EA0103958905EA010413B10CB10120DE
:100B700000E0002030BD70477047000000B587B02E
:100B8000072209212148FFF7E5FB07220A211F4818
:100B9000FFF7E0FB4FF40070059003208DF819007B
:100BA00002208DF8180000208DF81A0001208DF821
:100BB0001B0005A91548FFF785FB4FF480600590E1
:100BC00002208DF8180005A91048FFF77BFB4FF4B1
:100BD000165001900020ADF80C00ADF80800ADF8FB
:100BE0000A00ADF810000C20ADF80E0001A908486D
:100BF00000F052F8012240F22551054800F027F894
:100C00000121034800F00AF807B000BD00000240CF
:100C100000100140704770477047704721B18289CA
:100C200042F40052828104E082894DF6FF731A403B
:100C30008281704702460020B1F5007F00D100BFDD
:100C400013880B400BB1012000E000207047F0B585
:100C50000346002400260025002040F66A17B9420A
:100C600000D100BF1846C1F3421401F01F0601274E
:100C700007FA06F5012C01D10C3004E0022C01D159
:100C8000103000E014301AB107682F43076002E00B
:100C90000768AF430760F0BD2DE9FF4705460E46E4
:100CA0000024A14600BFA046B08900B100BF2C8A35
:100CB00024F44054F08804432C82AC8941F20C6047
:100CC0008443B08831890843718908430443AC8167
:100CD000AC8A24F44074B0890443AC826846FFF7C0
:100CE000C3FD2048854202D01F48854202D1DDF86D
:100CF0000C9001E0DDF80890A88900F4004040B1B4
:100D000009EBC90000EB091031684900B0FBF1F7AD
:100D100007E009EBC90000EB091031688900B0FB5E
:100D2000F1F76420B7FBF0F004012009642101FB16
:100D30001078A88900F4004040B1322000EBC800D0
:100D4000B0FBF1F000F00700044308E0322000EBB4
:100D500008106421B0FBF1F000F00F0004432C8177
:100D6000BDE8FF8700100140001401400FB470B5CA
:100D700086B006460CA8019073E00B9800785C28BA
:100D80001CD10B98401C0B9000786E2809D072285B
:100D90000FD10D21304600F06CF80B98401C0B90E1
:100DA0000BE00A21304600F064F80B98401C0B90D1
:100DB00003E00B98401C0B9000BF4BE00B980078B1
:100DC000252840D10B98401C0B900078642818D03F
:100DD000732833D1019810C801900BE02178304678
:100DE00000F047F800BF40213046FFF723FF0028FE
:100DF000F9D0641C20780028F0D10B98401C0B908F
:100E000020E0019820C801900A2202A9284600F09B
:100E100081F902AC0BE02178304600F02AF800BFDF
:100E200040213046FFF706FF0028F9D0641C2078E7
:100E30000028F0D10B98401C0B9003E00B98401C4D
:100E40000B9000BF06E00B9810F8011B0B9030468A
:100E500000F00FF800BF40213046FFF7EBFE0028FE
:100E6000F9D00B980078002887D106B070BC5DF8E7
:100E700014FBC1F308028280704700BFFEE7000048
:100E80000FB4054B10B503A9044A029800F018F8F6
:100E900010BC5DF814FB0000F110000828000020D1
:100EA00002E008C8121F08C1002AFAD17047704733
:100EB000002001E001C1121F002AFBD17047000091
:100EC0002DE9FF4F89B09B460446002506E0252802
:100ED0000BD05A460B999047641C6D1C2078002853
:100EE000F5D10DB02846BDE8F08F0027B8460122A5
:100EF000474900E0074314F8013F203B02FA03F0A2
:100F00000842F7D120782E2819D114F8010F47F0A4
:100F100004072A280ED06FF02F022078A0F13001AC
:100F200009290CD808EB880102EB410100EB01080C
:100F3000641CF2E70A98641C50F8048B0A9020782D
:100F40000028CED0642808D0692806D075281ED085
:100F50005A460B9990476D1C58E00A994FF00A09C0
:100F600001C90A91002802DA40422D2102E0390528
:100F700004D52B218DF82010012103E0F90704D0BE
:100F80002021F7E78A4608AE0DE00021FAE70A992A
:100F90004FF00A0901C90A91F7E74946FFF710F92E
:100FA000303106F8011D0028F7D1ADEB060000F145
:100FB0002009780701D44FF00108C84502DDA8EBED
:100FC000090000E000208046002706E008A85A46F5
:100FD000C05D0B9990476D1C7F1C5745F6DB04E004
:100FE00030205A460B9990476D1CB8F10001A8F1CA
:100FF0000108F5DC05E016F8010B5A460B999047FD
:101000006D1CB9F10001A9F10109F4DC641C65E76C
:101010000928010010B56FF00400FFF735FD0A48FC
:1010200000680A49B0FBF1F00949087008460078E9
:1010300000EB4001C1EBC0104FF6FF7101EAC000A8
:101040000449088010BD00000000002000127A0052
:1010500024000020260000200146114A12884A433D
:101060004FF0E0235A6100229A611A46126942F059
:1010700001021A6100BF4FF0E022106900F0010286
:101080001AB100F48032002AF5D04FF0E022126944
:1010900022F001024FF0E0231A6100229A617047AA
:1010A000260000200146114A12784A434FF0E023FF
:1010B0005A6100229A611A46126942F001021A61CD
:1010C00000BF4FF0E022106900F001021AB100F4F5
:1010D0008032002AF5D04FF0E022126922F001029E
:1010E0004FF0E0231A6100229A617047240000202B
:1010F00070B504460D46E1B20548FFF7BAFE00BFE1
:101100000348008800F080000028F9D0204670BD18
:1011100000100140F0B503460D461646002729464B
:101120000A2E03D0002008702846F0BD33B93020C5
:1011300001F8010B002008702846F6E7002B03DABF
:101140002D2001F8010B5B4242F210720DE093FB7F
:10115000F2F404B937B104F1300001F8010B04FBDB
:10116000123301270A2092FBF0F2002AEFDC002064
:1011700008702846D9E70000FFF74AF8FFF74CF956
:10118000FFF748FF11481249086012A11748FFF7FE
:10119000EDFD1AE0B0220221D020FFF797FA50208F
:1011A000FFF75AFF0221D020FFF7BAF904464FF6A5
:1011B000FF7000EA04240321D020FFF7B1F9204496
:1011C00084B221460AA0FFF75BFEE3E700000208B5
:1011D00008ED00E0B0E0BCB6D1A7BAC520A3BA3193
:1011E0003432303237330D0A000000000010014065
:1011F00025640D0A000000001812000800000020FD
:101200002C000000A00E0008441200082C00002052
:1012100004040000B00E0008007A030A0000000079
:101220000000000001020304060708090000000096
:10123000010203040102030406070809000000007C
:0412400000000000AA
:040000050800018965
:00000001FF
