:020000040800F2
:1000000020070020A90100084D1F0008471700081D
:10001000CB1D00087F150008912800080000000093
:10002000000000000000000000000000B1200008F7
:100030008315000800000000651F0008C5210008A6
:10004000C3010008C3010008C3010008C301000880
:10005000C3010008C3010008C3010008C301000870
:10006000C3010008C3010008C3010008C301000860
:10007000C3010008C3010008C3010008C301000850
:10008000C3010008C3010008C3010008C301000840
:10009000C3010008C3010008C3010008C301000830
:1000A000C3010008C3010008C3010008C301000820
:1000B000C3010008C3010008C3010008C301000810
:1000C000C3010008C3010008C3010008C301000800
:1000D000C3010008C3010008C3010008C3010008F0
:1000E000C3010008C3010008C301000800F002F8C2
:1000F00000F04AF80AA090E8000C82448344AAF178
:100100000107DA4501D100F03FF8AFF2090EBAE875
:100110000F0013F0010F18BFFB1A43F0010318473B
:10012000E485000004860000103A24BF78C878C136
:10013000FAD8520724BF30C830C144BF04680C60ED
:10014000704700000023002400250026103A28BF35
:1001500078C1FBD8520728BF30C148BF0B60704739
:10016000662907F03C83642900F070800020704706
:100170001FB500F097FC04000020002106F04EFAA5
:10018000E0601FBD10B510BD00F0D0FD1146FFF7B7
:10019000EFFF04F03FF900F0EEFD03B4FFF7F2FFCC
:1001A00003BC02F0FAFB00000948804709480047F9
:1001B000FEE7FEE7FEE7FEE7FEE7FEE7FEE7FEE717
:1001C000FEE7FEE704480549054A064B7047000074
:1001D000C9210008ED0000082001002020070020B0
:1001E0002003002020030020704710B54C1084EA43
:1001F000530404D54042C1F1000138BF491E1B42DF
:1002000004D55242C3F1000338BF5B1E00F02EF943
:1002100014F0804F04D04042C1F1000138BF491EA4
:1002200014F0004F04D05242C3F1000338BF5B1EEC
:1002300010BD00000FB4044910B503AA029800F0E5
:10024000FDFB10BC5DF814FB2C0000202DE9F041F3
:100250000646002410687529314616A510D0AFF364
:100260000080002802DA404213A507E031688A07BF
:1002700001D512A502E0490704D511A5012401E02A
:10028000AFF3008000210A2206F1240709E0B0FB49
:10029000F2FCB0FBF2F302FB1C003030785418463D
:1002A000491C0028F3D123462A463046BDE8F041D8
:1002B00000F05EB9000000002D0000002B000000DF
:1002C000200000002DE9F05F894604464FF0000A47
:1002D000DFF824B1FB44C0F820A02046E16888473D
:1002E00000287DD0252806D0D4E901219047206A36
:1002F000401C2062F1E700255F462046E168884700
:100300002028064607DB312E05D2B81910F8200C3C
:1003100008B10543F1E7A80701D525F00405C4F8A5
:100320001CA00027C4F818A02A2E09D0304602F0DD
:100330002DFB38B304EB8708303EC8F8186019E08D
:1003400059F8041B204604EB87029161E168884755
:10035000012F064618D1E069002820DA25F0200593
:100360001DE0D8F8180000EB800006EB40003038A4
:10037000C8F818002046E1688847064602F006FBE8
:100380000028EED1012F0AD02E2E08D12046E16898
:1003900088477F1C0646022F45F02005C4DBA06974
:1003A000002803DA404245F00105A061E80701D0CA
:1003B00025F01005A6B1A6F14100192802D8203673
:1003C00045F400654A463146204625604D46FFF714
:1003D000C7FE60B1012807D0ED1D25F0070000E041
:1003E00007E000F1080978E705F1040975E73046F0
:1003F0007AE7206ABDE8F09F4282000040EA0103EC
:1004000010B59B070FD1042A0DD310C808C9121FBD
:100410009C42F8D020BA19BA884201D9012010BDF7
:100420004FF0FF3010BD1AB1D30703D0521C07E0C4
:10043000002010BD10F8013B11F8014B1B1B07D128
:1004400010F8013B11F8014B1B1B01D1921EF1D199
:10045000184610BD02F0FF0343EA032242EA0242BB
:1004600000F000BB704770477047704753EA020CBA
:1004700000F069802DE9F04B4FF00006002B1FBF04
:10048000B3FA83F503FA05F424FA05F65E4012BFC9
:100490001643B2FA82F502FA05F4C5F120051EBF33
:1004A00022FA05FC44EA0C04203556EA044C4FEAD3
:1004B000144418BF641C4FF000084FF0000990422C
:1004C00071EB030C39D3002919BFB1FA81F701FA96
:1004D00007F6B0FA80F700FA07F6C7F120071EBF4B
:1004E00020FA07FC46EA0C062037B6FBF4FCA7EB23
:1004F0000507103F07F01F0BCBF120060CFA0BFB92
:100500002CFA06F644BFB3460026202FA4BF5E4651
:100510004FF0000B5BEA060C08BF4FF0010B19EB24
:100520000B09ABFB027C48EB0608C01B06FB02CCA8
:100530000BFB03CC71EB0C01C1E70B4602464146B5
:100540004846BDE8F08B13B54FF000004FF00001B6
:10055000AFF30080BDE81C40704710B500F0A6FA6C
:10056000006810BD10B5044600F0A0FA046010BD8C
:100570002DE9F0470D4699469246044600F12408BD
:100580000168880604D5E06921F01001216000E0CF
:100590000120A84201DD471B00E00027A1697A196C
:1005A00002EB0900081AA0612078C00602D4204698
:1005B000AFF30080002608E0D4E901211AF8060014
:1005C0009047206A401C761C20624E45F4DB207860
:1005D000C0060AD52046AFF3008006E0D4E9012129
:1005E00030209047206A401C2062381EA7F1010786
:1005F000F4DC07E0D4E9012118F805009047206AEF
:10060000401C2062281EA5F10105F3DC2046AFF353
:1006100000802078000602D50220BDE8F087012086
:10062000FBE770472DE9FF4F0C461E464FF0FF37A2
:100630008BB0D2E90001DDF860800A908A46C1F3F0
:100640000A5505B93D46002108464FF00000BAF1B1
:10065000000F00F4400005DA00EB80004FF4400189
:1006600001EA50004FEA9059B9F1010F00DDB94697
:100670000A9850EA4A000ED044F61050A5F2FF3511
:1006800045432F14B8F1000F1ED07542291E1EDD00
:10069000C9F100021CE0B8F1010F4FF0000001D0D9
:1006A000302103E0F24305E02154401CB042FBDB63
:1006B00030460022002121540B99C1F80880C1E97D
:1006C00000200FB0BDE8F08FBD1B6D1CDEE74A4671
:1006D00000DA694206A800F08BFA06AB93E807003F
:1006E00003AB83E8070050460A9900F08DFB8DE8C4
:1006F0000700A0F500501F3800900398002D09DD79
:1007000042F21F014A46084403A90390684600F0DC
:10071000ECFD08E0A0F500504A461F3803A90390FD
:10072000684600F0F6FD8DE807000004000C03D0D9
:100730004FF0FF30410800E01046B8F1000F03D041
:100740000022009215461EE0751E05D400F0B2F995
:10075000303262556D1EF9D5B3460122084302D0EE
:1007600000227F1C04E02078302801D100227F1E67
:10077000002A099786D01DE0112D07DA00F09AF9BA
:10078000303262556D1C50EA0102F5D1084302D0A7
:100790000098C8B10EE00021681E05E0235C625C91
:1007A00063542254401E491C8142F7DBAB46A81B10
:1007B000401E0990002004F80B000B98099AC0F81D
:1007C0000880C0E9002B7CE711264FF0000859E7AC
:1007D0002DE9F04F88460446D21D22F0070191B062
:1007E000D1E90001CDE90A0102F054F802460B9864
:1007F000C00F01D02D2007E02068810701D52B20F4
:1008000002E0202101EAC000032A099001D0072A52
:1008100005DB03464146204600F0AAF90BE12078AB
:10082000800601D5E06900E00620B8F1650F814639
:1008300006D0B8F1660F18D0B8F1670F70D131E06B
:100840000020B9F1110F009001DB112301E009F143
:1008500001030AAA01A90CA8FFF7E4FEDDE90C7068
:10086000002609F10105834647E001204B46009030
:100870004FF000470AAA01A90CA8FFF7D3FEDDE953
:100880000DB00C995D46002610B909F101000D1854
:10089000B9EB050003D4C0F1FF3609F10105A5EB62
:1008A00009002BE0B9F1010F01DA4FF00109002036
:1008B000B9F1110F0090484601DD112300E0034615
:1008C0000AAA01A90CA8FFF7ADFEDDE90C704D46A0
:1008D00000268346207800070AD4AB4500DA5D463F
:1008E00001A8012D04DD411911F8011C302907D0A0
:1008F0004F4502DA17F1040F04DA012082460FE0B7
:100900006D1EEEE7002F02DCED1B3E4403E0781C79
:10091000A84200DD7D1CB81B00F1010A4FF0004722
:100920002078000703D4AA4501DB4FF0FF3A0021ED
:10093000B7F1004F0DF143088DF8431024D0022089
:100940002B23002F01DA7F422D230A21021EA0F162
:10095000010000DC5FB197FBF1FC97FBF1F201FBBA
:100960001C7C17460CF1300C08F801CDEEE7A8F11D
:10097000010003702188090501D5452100E06521AA
:10098000A0F1010800F8011C09980FA9A1EB0807C4
:10099000FF1D00B10120411901EBEA70A169384443
:1009A000081A401EA0612078C00602D42046AFF38A
:1009B0000080099828B1D4E901219047206A401CA1
:1009C00020622078C00622D52046AFF300801EE0CA
:1009D000002E04DBB34502DD01A8805D00E030207D
:1009E000D4E901219047206A401C2062761CAAF1BC
:1009F00001005FEA000A0AD100F054F8C0680168FB
:100A0000405CD4E901219047206A401C2062281EE6
:100A1000A5F10105DCDC07E0D4E9012118F8010BA0
:100A20009047206A401C2062381EA7F10107F3DCC2
:100A30002046AFF30080032011B043E6074B70B5AA
:100A40000D467B4400F081F80446284600F03EF94C
:100A500010B14FF0FF3070BD204670BD073300006D
:100A60004FF000020429C0F0128010F0030C00F0D7
:100A70003381CCF1040CBCF1020F18BF00F8012B3C
:100A8000A8BF20F8022BA1EB0C0100F025B95FEA0A
:100A9000C17C24BF00F8012B00F8012B48BF00F8EF
:100AA000012B704700487047DC0000200048704769
:100AB000BC00002030B5B0F10A024FEA900E71F18F
:100AC00000034EEA817EB0EB0E0061EB91014FEA2C
:100AD000101E4EEA017E10EB0E0041EB11114FEAA1
:100AE000102E4EEA016E10EB0E0041EB11214FEA81
:100AF000104E4EEA014E10EB0E0041EB1141401832
:100B000041F100014FEAD00040EA41704FEAD101C3
:100B100010EB80054FEA810444EA907444EB010431
:100B20006D1944EB0404521BA3414FF0000348BF6E
:100B30000A3200D530BD401C41F1000130BD00003B
:100B400001694A1C02610878704700B58FB0CDE991
:100B500001310021059105497944CDE90310114681
:100B60006846FFF7AFFB0FB000BD0000E5FFFFFFD9
:100B70002DE9F0411F46044603260168072A01F4C7
:100B8000006004DB08B116A505E016A503E008B176
:100B900015A500E015A521F010002060A069C01E79
:100BA000A0610FB1401EA0612046AFF300804FB19D
:100BB000D4E9012138469047206A401C2062C01CBD
:100BC000206206E0206AFAE7D4E9012115F8010B5A
:100BD0009047761EF8D22046AFF30080BDE8F08142
:100BE0004E414E006E616E00494E4600696E6600D1
:100BF0002DE9F047814616468AB0334878440DC83F
:100C00008DE80D0030487844801C03AC0DC884E8A2
:100C10000D0041F69B300844372190FBF1F290FB28
:100C2000F1F5A5F1800501FB12041B3C02D56442DD
:100C3000012000E00020DFF890A080460027FA4461
:100C4000AAF1BE0A0DE0E00709D03246684607EB7C
:100C500047010AEB810100F05CFB8DE8070064109E
:100C60007F1C002CEFD1184F7F44AC3F18E0E80701
:100C700014D007EB04100DF1180A90E80E008AE872
:100C80000E00C068F04201D198190890324606A9BA
:100C900003A800F03EFB03AB83E807006D10641C63
:100CA000002DE4D132466946B8F1000F03A802D006
:100CB00000F01BFB01E000F02CFBC9E90001C9F8C2
:100CC00008200AB0BDE8F0879C7A0000007B00F0A5
:100CD000800070474FF0000200B5134694469646D8
:100CE000203922BFA0E80C50A0E80C50B1F120013F
:100CF000BFF4F7AF090728BFA0E80C5048BF0CC0ED
:100D00005DF804EB890028BF40F8042B08BF70474A
:100D100048BF20F8022B11F0804F18BF00F8012BBC
:100D20007047000000487047BC0000207546FFF780
:100D3000F9FFAE4605006946534620F00700854698
:100D400018B020B5FFF73EFABDE820404FF000068E
:100D50004FF000074FF000084FF0000B21F00701A3
:100D6000AC46ACE8C009ACE8C009ACE8C009ACE8E6
:100D7000C0098D46704710B50446AFF30080204689
:100D8000BDE81040FFF709BA4FF0013C50F8042BC2
:100D900051F8043B9A4221D1A2EB0C03934313EA8E
:100DA000CC1317D150F8042B51F8043B9A4215D1BB
:100DB000A2EB0C03934313EACC130BD150F8042B92
:100DC00051F8043B9A4209D1A2EB0C03934313EA76
:100DD000CC13DBD04FF00000704700BFD01A01BA2F
:100DE000B1FA81F101F0180122FA01F0CB40C1F112
:100DF0002001DBB2C0B2C01A2CFA01F3D11A914320
:100E000011EAC311E6D170475FEA400C08BF91F0C8
:100E1000000F4FEA8C234FEAC12243EA51514FEAB7
:100E20001C5018BF00F5F0404FEA300018BF41F0E9
:100E300000415FEA6C5C00F02980BCF1FF3F08BF15
:100E400040F080407047130C06BF12044FF0100CA6
:100E50004FF0000C130E04BF12020CF1080C130F1C
:100E600004BF12010CF1040C930F04BF92000CF1AB
:100E7000020CD30F04BF52000CF1010C11464FF0CD
:100E80000002A0F11F00A0EB0C00704711F0004F12
:100E900008BF704731F000413FF4D5AF0B0C06BFDF
:100EA00009044FF0100C4FF0000C0B0E04BF0902A8
:100EB0000CF1080C0B0F04BF09010CF1040C8B0F93
:100EC00004BF89000CF1020CCB0F04BF49000CF1E8
:100ED000010CCCF12003A0EB0C0022FA03F302FA80
:100EE0000CF241EA030100F10100704720F07F4C51
:100EF00080EA030023F07F47ACEB070303F57C5344
:100F000000F0004003F1FF032DE980494FEA154B43
:100F100009B44FEA144325EA0B4E24EA03480FF2C2
:100F2000042606EB132749083E785FEA320203FBEA
:100F30000667C7F5000707FB06F64FEA54374FEA86
:100F4000D64606F1020607FB066CCCF1005C4FEAC0
:100F50001C472CEA074C07FB06F40CFB06F504EBD8
:100F600015464FEA961634BF00204FF000404FEA76
:100F7000D13706FB07FC4FEA1C4C0CFB0BF7D21BCE
:100F800003FB0CF761EB07010CFB0EF7B0EB07401E
:100F900072EB17420CFB08F734BFA2EB0742B2EB2F
:100FA000074261EB17414FEA0C444FEA910706FBF9
:100FB00007FC4FEA1C4C0CFB0BF7B0EBC74072EB85
:100FC000573203FB0CF734BFA2EBC742B2EBC74268
:100FD00061EB57310CFB0EF7B0EBC70072EB5772A9
:100FE0000CFB08F734BFA2EBC702B2EBC70261EB00
:100FF0005771039F4FEA816141EA921104EBCC04DF
:101000004FEAD1374FEA826206FB07FC42EA9012B0
:101010004FEA80604FEA1C4C0CFB0BF7D21B03FB22
:101020000CF761EB07010CFB0EF7B0EB074072EB1E
:1010300017420CFB08F734BFA2EB0742B2EB0742A2
:1010400061EB17414FEA8C554FEA910704EB9C2462
:1010500006FB07FC4FEA1C4C0CFB0BF7B0EBC74040
:1010600072EB573203FB0CF734BFA2EBC742B2EB73
:10107000C74261EB57310CFB0EF7B0EBC70072EBC8
:1010800057720CFB08F734BFA2EBC702B2EBC702E2
:1010900061EB577115EB4C254FEA816141EA9211E2
:1010A0004FEA82624FEAD13742EA901206FB07FC10
:1010B00044F100044FEA80604FEA1C4C0CFB0BF734
:1010C000D21B03FB0CF761EB07010CFB0EF7B0EB37
:1010D000074072EB17420CFB08F734BFA2EB074244
:1010E000B2EB074261EB174115EB1C154FEA81315A
:1010F00041EA92414FEA823242EA90424FEA80301E
:101100004FEA0C7644F1000448EA03434EEA0B48E8
:101110004FF0000EB2EB080C71EB030724BF6246E0
:1011200039464EEB0E0E4FF0000B0018524149416C
:101130004BEB0B0BB2EB080C71EB03077BF1000BD5
:1011400024BF624639464EEB0E0E4FF0000B0018DE
:10115000524149414BEB0B0BB2EB080C71EB03070F
:101160007BF1000B24BF624639464EEB0E0E51EA6E
:10117000020718BF46F0010616EB0E7655F1000285
:1011800054F1000103D5BDE88901BDE80088BDE840
:101190008901BDE80048B619524141EB0101A3F1B4
:1011A0000103704780807F7E7D7C7B7A79787776BB
:1011B00076757473727171706F6E6E6D6C6C6B6A34
:1011C0006A696868676666656464636362616160D2
:1011D000605F5F5E5E5D5D5C5C5B5B5A5A5959584F
:1011E00058575756565555555454535352525251B9
:1011F000515050504F4F4F4E4E4D4D4D4C4C4C4B0F
:101200004B4B4A4A4A494949484848474747474655
:101210004646454545444444444343434342424291
:1012200042414141002B26D4770021D01CB54FEA22
:10123000370703B44FF010004FF010014FF00000DB
:101240000FBCBDE810400BF1010BBBF1010F08BF53
:101250005FEA170722BF12F1010211F101014FF0FD
:10126000004143F1000300F0004043EA00007047F2
:10127000F9D35708DAE746EA064613F1400F4FEA7A
:1012800016461FDD13F1200FDFBF16430A4600216B
:1012900020335B42C8D0C3F1200746EA064602FA73
:1012A00007F74FEA164646EA0706C3F1200722FA77
:1012B00003F201FA07F721FA03F14FF0000342EAC3
:1012C0000702B1E746EA020646EA06464FEA164634
:1012D00046EA0106BCBF46EA0646360C4FF000035C
:1012E0004FF000024FF000019EE72DE9C048934601
:1012F00030B491E8380007C831EA400C48BF34EAFE
:10130000430C03D5FFF7F2FDFFF78CFFF0BCBDE8FF
:1013100000882DE9C048934630B491E8380007C8EA
:1013200010F0804F08BF13F0804F03D100F005F894
:10133000FFF778FFF0BCBDE8008820F07F4780EA27
:10134000030023F07F4C07EB0C03A3F57C5300F064
:101350000040A3F1FE0392F0000F00F0B38095F07F
:10136000000F00F077802DE901494FEA11404FEA64
:10137000144621EA004800FB06FC24EA064708FB65
:1013800006F607FB08F800FB07F718EB06484CEBDE
:10139000164C4FEA124B18EB07484FEA15464CEB38
:1013A000174022EA0B4E0BFB06FC25EA06470EFB14
:1013B00006F607FB0EFE0BFB07F71EEB064E4CEB8B
:1013C000164C4FF000061EEB074E4CEB174B18EB7C
:1013D0000B0840F1000018EB0E0B58EB000840F131
:1013E00000008F1A4FF000013CBFC943661B14BFB9
:1013F000B5EB040C00213CBFC943F61B4FEA174470
:101400004EEA8E0E27EA04454FEA1C4704FB0762AA
:101410002CEA074C05FB07F70CFB05F604FB0CFC5C
:1014200016EB074642EB174216EB0C4642EB1C420A
:101430001BEB060658EB0202414146EA9E0601D527
:10144000BDE80189B619524141EB0101A3F1010345
:10145000BDE801894FEA14454FEA114724EA0546E1
:1014600021EA074C05FB07F406FB07F70CFB06F126
:1014700005FB0CFC11EB074144EB17444FEA124704
:1014800011EB0C4144EB1C4422EA074C05FB07F22C
:1014900006FB07F70CFB06F605FB0CFC16EB0746F4
:1014A00042EB174216EB0C4642EB1C456A1854F10E
:1014B000000148BF7047B619524141EB0101A3F149
:1014C0000103704795F0000F37D04FEA11424FEA01
:1014D000144721EA024624EA074C02FB07F106FB07
:1014E00007F70CFB06F402FB0CFC14EB074441EB82
:1014F00017414FEA154714EB0C4441EB1C4125EA18
:10150000074C02FB07F506FB07F70CFB06F602FB90
:101510000CFC16EB074645EB174516EB0C4645EB66
:101520001C42121951F1000148BF7047B6195241CF
:1015300041EB0101A3F1010370474FEA14454FEA63
:10154000114724EA054621EA074C05FB07F106FB93
:1015500007F70CFB06F24FF0000605FB0CFC12EB44
:10156000074241EB174112EB0C4251EB1C4148BFC3
:101570007047921841EB0101A3F10103704700BFCE
:10158000FEE770472DE9F0410246002500260020C5
:1015900000230024002791F803C00CF00F0591F8F8
:1015A00003C00CF0100CBCF1000F03D091F802C086
:1015B0004CEA050591F800C0BCF1000F31D0146869
:1015C00000202BE04FF0010C0CFA00F3B1F800C042
:1015D0000CEA03069E4220D183004FF00F0C0CFA58
:1015E00003F7BC4305FA03FC4CEA040491F803C07A
:1015F000BCF1280F06D14FF0010C0CFA00FCC2F828
:1016000014C00AE091F803C0BCF1480F05D14FF0B7
:10161000010C0CFA00FCC2F810C0401C0828D1D301
:101620001460B1F800C0BCF1FF0F34DD5468002035
:101630002EE000F1080C4FF0010808FA0CF3B1F8A5
:1016400000C00CEA03069E4221D183004FF00F0C2C
:101650000CFA03F7BC4305FA03FC4CEA040491F8C6
:1016600003C0BCF1280F05D100F1080C08FA0CF8F2
:10167000C2F8148091F803C0BCF1480F07D100F103
:10168000080C4FF0010808FA0CF8C2F81080401C52
:101690000828CED35460BDE8F0810000F0B50A46BA
:1016A000002300240021002500F00046B6F1004F81
:1016B00002D11D4EF16901E01B4E7168C0F3034574
:1016C00083B200F44016B6F5401F08D121F07061D6
:1016D000154E766826F07066134F7E6012E000F4B7
:1016E0008016B6F5801F06D1032606FA05F4A1433D
:1016F00041F0706106E0460D360103FA06F6B1438B
:1017000041F0706122B1460D360103FA06F631430D
:1017100000F00046B6F1004F02D1034EF16101E046
:10172000014E7160F0BD0000000001400246002043
:1017300093680B400BB1012000E00020704741612D
:1017400070470161704700BFFEE7000008B5012146
:10175000082000F019FC4FF48050ADF80000142070
:101760008DF8030003208DF8020069460448FFF756
:1017700009FF4FF480510248FFF7E3FF08BD000066
:10178000000C01402DE9FC4104460D4616466B460F
:1017900006223B21682000F042FA0746BFB99DF8B7
:1017A00001009DF8001040EA012000B220809DF861
:1017B00003009DF8021040EA012000B228809DF845
:1017C00005009DF8041040EA012000B23080384640
:1017D000BDE8FC812DE9FC4104460D4616466B46EA
:1017E00006224321682000F01AFA0746BFB99DF887
:1017F00001009DF8001040EA012000B220809DF811
:1018000003009DF8021040EA012000B228809DF8F4
:1018100005009DF8041040EA012000B230803846EF
:10182000BDE8FC812DE9F84F6B460222412168207A
:1018300000F0F5F99DF801009DF8001040EA012044
:101840000FFA80FA504605F039F9804600220B4B1A
:1018500004F0DCFF06460A4A0A4B04F027FF044660
:1018600004F0F2FE83460849584605F045FE04465A
:1018700005F0A6FD00B2BDE8F88F000000407540FD
:10188000A4703D0AD74342400000C84210B5002072
:101890000E4908600E48006820F470400C4908604A
:1018A0000846006840F44050086000200949C1F82B
:1018B000AC0100F011F801200449086000F00CF8B8
:1018C00000200449C1F8A80110BD0000A8812142F0
:1018D000040C01400080214210B5022001F036FCCA
:1018E00010BD000008B50121082000F04DFB4FF4A9
:1018F0004060ADF8000010208DF8030003208DF843
:10190000020069460448FFF73DFE4FF4406102487B
:10191000FFF717FF08BD0000000C014010B50020C4
:101920000E4908600E48006820F470400C490860B9
:101930000846006840F44050086001200949C1F899
:10194000AC01FFF7C9FF012004490860FFF7C4FF9D
:1019500000200449C1F8A80110BD0000A88121425F
:10196000040C01400080214270B505460024164851
:10197000006820F47040144908600846006840F48C
:1019800000400860002614E0002010490860FFF7BE
:10199000A3FF01200E49C1F8A8016006040E0B4800
:1019A0007C38006808B1601CC4B2FFF795FF701C5A
:1019B000C6B2082EE8DB15B9FFF7B0FF01E0FFF76C
:1019C00065FF204670BD0000040C0140A881214243
:1019D0000080214270B504461248006820F470402F
:1019E000104908600846006840F440500860002034
:1019F0000D490860002512E0E0090B49091D086047
:101A00006006040E01200949C1F8A801FFF764FF30
:101A1000002005490860FFF75FFF681CC5B2082D6C
:101A2000EADB70BD040C0140A88121420080214204
:101A300010B50E48006820F470400C490860084654
:101A4000006840F4405008600120094908600949D5
:101A5000C1F8A801FFF740FF002005490860FFF723
:101A60003BFF00200349C1F8A80110BD040C014050
:101A7000AC8121420080214210B50E48006820F45C
:101A800070400C4908600846006840F44050086007
:101A90000020094908600949C1F8AC01FFF71CFFA3
:101AA0000120054908600549C1F8AC01FFF714FFA2
:101AB00010BD0000040C0140A88121420080214299
:101AC00010B500241448006820F4704012490860E2
:101AD0000846006840F40040086001200F49086093
:101AE000FFF7FAFE01200E49C1F8A801FFF7F4FE46
:101AF00007E0601CC4B2FA2C03DDFFF7BDFF012034
:101B000010BD0648803800680028F2D10349091F3B
:101B1000086000BFF4E70000040C0140AC812142E2
:101B20000080214238B50121084600F02DFA01213C
:101B3000042000F029FA4FF40040ADF80000102016
:101B40008DF8030003208DF8020069462248FFF754
:101B500019FD01212148FFF7A1FD0020204908605F
:101B6000FFF7C0FE80216B2000F0DDF8642001F05B
:101B7000C7FA00216B2000F0D6F8032000F091F89E
:101B8000002000F086F8322000F0B0F80021382064
:101B900000F0C9F800216A2000F0C5F800212320D8
:101BA00000F0C1F88021372000F0BDF8752000F06A
:101BB00019F80446682C0BD101216B2000F0B3F812
:101BC00000216C2000F0AFF8322000F08FF801E027
:101BD000012038BD0020FCE7000801400002300071
:101BE000BC01214270B50446FFF722FFD020FFF769
:101BF000F1FEFFF765FF2046FFF7ECFEFFF760FF01
:101C0000FFF716FFD120FFF7E5FEFFF759FF002091
:101C1000FFF7AAFE0546FFF72FFF284670BD2DE906
:101C2000F04106460F4614461D46FFF701FF00210E
:101C300041EA4601C8B2FFF7CDFEFFF741FF20B1F0
:101C4000FFF71AFF0120BDE8F0813846FFF7C2FE1A
:101C5000FFF736FFFFF7ECFE012101EB4601C8B2AA
:101C6000FFF7B8FEFFF72CFF0DE0012C04D1002098
:101C7000FFF77AFE287003E00120FFF775FE287059
:101C8000601EC4B26D1C002CEFD1FFF7F5FE0020E2
:101C9000D9E710B50446E006010E1C2000F043F819
:101CA00010BD10B50446E006010E1B2000F03BF805
:101CB00010BD70B504460025BC2C01DB012510E0E9
:101CC000622C01DB02250CE02A2C01DB032508E055
:101CD000142C01DB042504E00A2C01DB052500E0BF
:101CE000062529461A2000F01EF870BD70B504467E
:101CF000B4F57A7F01DD4FF47A74042C00DA042401
:101D00004FF47A7090FBF4F0401EC5B229461920BA
:101D100000F009F80546264604EBD671C1F34F00E2
:101D2000FFF7C7FF70BD70B505460C46FFF780FE94
:101D3000D020FFF74FFEFFF7C3FE18B1FFF79CFE60
:101D4000012070BD2846FFF745FEFFF7B9FE20468B
:101D5000FFF740FEFFF7B4FE18B1FFF78DFE01203C
:101D6000EFE7FFF789FE0020EBE72DE9F04105469C
:101D70000E4617469846FFF75BFE002141EA4501F3
:101D8000C8B2FFF727FEFFF79BFE20B1FFF774FEF6
:101D90000120BDE8F0813046FFF71CFEFFF790FE02
:101DA00000240CE018F80400FFF714FEFFF788FE8B
:101DB00018B1FFF761FE0120EBE7601CC4B2BC4222
:101DC000F0DBFFF759FE0020E3E700BFFEE710B5A8
:101DD00000F07EFA00F090FC10BD000070B50446E3
:101DE0000D46002D01DD012000E00020D0B10128CA
:101DF00048D110215048FFF7A2FC20214E48FFF7A0
:101E0000A0FC40214C48FFF79AFC80214A48FFF78C
:101E100098FCA9B2494800F014FCA9B2474800F068
:101E200012FC2FE085B910214348FFF788FC2021E0
:101E30004148FFF784FC40213F48FFF780FC8021A8
:101E40003D48FFF77CFC19E010213B48FFF779FC87
:101E500020213948FFF773FC40213748FFF771FC18
:101E600080213548FFF76BFC684281B2334800F0AF
:101E7000E8FB684281B2314800F0E5FB30A0FEF794
:101E8000D9F900BF00BF002C01DD012000E00020D7
:101E9000E0B101284DD101022748FFF750FC4FF473
:101EA00080512548FFF74DFC02212348FFF747FCEE
:101EB0004FF400612048FFF744FCA1B21F4800F036
:101EC000C4FBA1B21D4800F0C2FB32E09CB94FF444
:101ED00080711948FFF733FC4FF480511648FFF723
:101EE0002EFC02211448FFF72AFC4FF4006112482F
:101EF000FFF725FC1CE04FF480710F48FFF721FC31
:101F00004FF480510C48FFF71AFC02210A48FFF7F2
:101F100018FC4FF400610848FFF711FC604281B2E1
:101F2000064800F092FB604281B2044800F08FFB4B
:101F300000BF00BF70BD0000000801400008004065
:101F400032323232323232323232320070470000B4
:101F500002490143024A1160704700000000FA057F
:101F60000CED00E07047000029B1064AD269024337
:101F7000044BDA6104E0034AD2698243014BDA611F
:101F8000704700000010024029B1064A92690243DE
:101F9000044B9A6104E0034A92698243014B9A61BF
:101FA000704700000010024030B5002100220024DC
:101FB00000232D4D6D6805F00C0121B1042905D0D9
:101FC000082923D105E0294D056022E0274D056051
:101FD0001FE0254D6D6805F47012234D6D6805F402
:101FE0008034022505EB92421CB9214D5543056012
:101FF0000BE01D4D6D6805F400351DB11C4D5543BA
:10200000056002E0194D5543056002E0174D05607B
:1020100000BF00BF144D6D6805F0F0010909154DB2
:102020006B5C0568DD4045600F4D6D6805F4E0614F
:10203000090A104D6B5C4568DD4085600A4D6D688E
:1020400005F46051C90A0B4D6B5C4568DD40C56005
:10205000054D6D6805F44041890B074D6B5CC56803
:10206000B5FBF3F5056130BD0010024000127A00A7
:1020700000093D00140000202400002010B580213C
:102080000A48FFF753FB40210848FFF74FFB102198
:102090000648FFF74BFB4FF480710448FFF746FBFF
:1020A0004FF400710148FFF741FB10BD00100140E3
:1020B000704710B500F002F810BD00000CB500200C
:1020C000019000903348006840F480303149086046
:1020D00000BF3048006800F4003000900198401CB8
:1020E0000190009818B90198B0F5A06FF1D1294876
:1020F000006800F4003010B10120009001E00020E1
:1021000000900098012843D12348006840F0100057
:10211000214908600846006820F00300086008466E
:10212000006840F0020008601A4840681949486099
:102130000846406848600846406840F4806048604F
:102140000846406820F47C1048600846406840F427
:10215000E81048600846006840F08070086000BFE2
:102160000C48006800F000700028F9D00948406869
:1021700020F00300074948600846406840F002002C
:10218000486000BF0348406800F00C000828F9D1FF
:102190000CBD00000010024000200240042808D1BD
:1021A0004FF0E021096941F004014FF0E022116194
:1021B00007E04FF0E021096921F004014FF0E0222F
:1021C000116170477047000010B51348006840F077
:1021D00001001149086008464068104908400E494E
:1021E0004860084600680E4908400B4908600846E8
:1021F000006820F4802008600846406820F4FE0053
:1022000048604FF41F008860FFF753FF4FF00060F5
:102210000449086010BD0000001002400000FFF8F3
:10222000FFFFF6FE08ED00E030B589B005460C462C
:1022300001210220FFF798FE01210820FFF7A4FEEC
:1022400018208DF823000320ADF820008DF822001F
:1022500008A91748FFF796F90020ADF81A00ADF865
:102260001600ADF81850ADF8144005A9114800F05B
:10227000F1F97020ADF804000120ADF8060000204F
:10228000ADF80C0001A90B4800F036F901A9094886
:1022900000F08CF90121074800F00EF808210548EC
:1022A00000F07AF90821034800F0BEF909B030BD0A
:1022B000000C01400004004021B1028842F00102FC
:1022C000028004E002884FF6FE731A4002807047D5
:1022D00008B501210820FFF757FE4020ADF80000A7
:1022E00018208DF8030003208DF802006946254868
:1022F000FFF748F901210820FFF746FE8020ADF8DE
:10230000000018208DF8030003208DF802006946B4
:102310001C48FFF737F901210820FFF735FE4FF47D
:102320008070ADF8000018208DF8030003208DF8B0
:10233000020069461348FFF725F901210820FFF73D
:1023400023FE4FF40070ADF8000018208DF8030054
:1023500003208DF8020069460A48FFF713F90121AE
:102360000420FFF711FE41F6F210ADF80000102036
:102370008DF8030003208DF8020069460248FFF73C
:1023800001F908BD000C01400008014070B50024AF
:1023900000220023058C4FF6FE7635400584028C22
:1023A0008388048B4FF68F752C40B51E2C400D880A
:1023B0002C43751E2A400D892A434D882A43144D0B
:1023C000A8420BD0134DA84208D0134DA84205D007
:1023D000124DA84202D0124DA84213D14FF6F77504
:1023E0002A404D892A434FF6FB752A408D882A439F
:1023F0004FF6FF652B404FF6FF552B408D892B4341
:10240000CD892B4383800483CD888586028470BD6B
:10241000002C0140003401400040014000440140D4
:10242000004801400A460021018B4FF6F77319401E
:10243000114301837047000070B50024002200237F
:10244000058C4FF6EF7635400584028C8388048B2B
:1024500048F6FF752C404FF6FF452C400D884FF68F
:10246000FF7606EA05252C434FF6DF752A400D89D5
:1024700006EA05152A434D8806EA05152A43154D37
:10248000A84202D0144DA8421DD14FF67F752A40B4
:102490004D894FF6FF7606EA05152A434FF6BF75BC
:1024A0002A408D8806EA05152A434FF6FF352B4052
:1024B0004FF2FF752B408D8906EA85052B43CD89A8
:1024C00006EA85052B4383800483CD880587028433
:1024D00070BD0000002C0140003401400A4600217C
:1024E000018B4FF2FF7319404FF6FF7303EA02238B
:1024F000194301837047000070B5002400220023B7
:10250000058C4FF6FF6635400584028C8388848BEA
:102510004FF68F752C404FF6FC752C400D882C43E0
:102520004FF6FF552A400D894FF6FF7606EA05253E
:102530002A434D8806EA05252A43154DA84202D0B4
:10254000144DA8421DD14FF2FF752A404D894FF618
:10255000FF7606EA05252A434FF6FF352A408D8887
:1025600006EA05252A434EF6FF752B404DF6FF750A
:102570002B408D8906EA05152B43CD8906EA051502
:102580002B4383808483CD888587028470BD0000BF
:10259000002C0140003401400A460021818B4FF697
:1025A000F7731940114381837047000070B5002212
:1025B00000230024058C4EF6FF7635400584038CFD
:1025C0008488828B48F6FF752A404FF6FF452A40E3
:1025D0000D884FF6FF7606EA05252A434DF6FF756E
:1025E0002B400D8906EA05352B434D8806EA053553
:1025F0002B430B4DA84202D00A4DA84208D14BF6FE
:10260000FF752C408D894FF6FF7606EA85152C4321
:1026100084808283CD88A0F84050038470BD000080
:10262000002C0140003401400A460021818B4FF20A
:10263000FF7319404FF6FF7303EA022319438183A6
:102640007047818670470187704781877047A0F87F
:1026500040107047002202881D4B98420ED01D4B3F
:1026600098420BD0B0F1804F08D01B4B984205D058
:102670001A4B984202D01A4B984204D14FF68F73EE
:102680001A404B881A43174B984207D0164B984272
:1026900004D04FF6FF431A40CB881A4302808B8840
:1026A00083850B8803850A4B98420BD0094B9842CF
:1026B00008D00E4B984205D00D4B984202D00D4BDE
:1026C000984201D10B7A0386012383827047000070
:1026D000002C01400034014000040040000800408C
:1026E000000C004000100040001400400040014079
:1026F000004401400048014000B587B0012104209A
:10270000FFF732FC6320ADF814004720ADF810004D
:102710000020ADF81600ADF812008DF8180004A9DD
:102720001E48FFF797FF6020ADF800000120ADF8CC
:1027300002000020ADF80800ADF806006946174811
:10274000FFF724FE08211548FFF76CFE0020ADF8C6
:10275000060069461148FFF76FFE08210F48FFF792
:10276000BDFE0020ADF8060069460C48FFF7C4FE28
:1027700008210A48FFF710FF0020ADF8060069465F
:102780000648FFF713FF08210448FFF74DFF01211A
:102790000248FFF791FD07B000BD000000080040AF
:1027A00021B1828942F40052828104E082894DF68F
:1027B000FF731A40828170472DE9F04786B00546C5
:1027C0000E460024A24600BFA1460027B08900B1F2
:1027D00000BF2F462C8A4CF6FF700440F08804435B
:1027E0002C82AC894EF6F3100440B088318908433E
:1027F000718908430443AC81AC8A4FF6FF40044022
:10280000B0890443AC8201A8FFF7CEFB1F48874282
:1028100002D1DDF810A001E0DDF80CA0A88900F4D9
:10282000004040B10AEBCA0000EB0A1031684900D1
:10283000B0FBF1F807E00AEBCA0000EB0A103168C0
:102840008900B0FBF1F86420B8FBF0F00401200926
:10285000642101FB1089A88900F4004040B13220B6
:1028600000EBC900B0FBF1F000F00700044308E002
:10287000322000EB09106421B0FBF1F000F00F00F2
:1028800004432C8106B0BDE8F08700000038014009
:1028900000BFFEE7490050EAC12018BF04204A0DDE
:1028A00018BF40F0010040F2FF72B2EB515F08BF69
:1028B00040F00200012808BF052070472DE9F041D3
:1028C0004F1E00EBC7010446D1E9000115461E4624
:1028D00037F006020DD02A46334604F007F97F1E72
:1028E00004EBC703D3E9002303F0E0FE37F0060250
:1028F000F1D1022F25D0042F13D0062F18BFBDE829
:10290000F0812A46334604F0F1F8D4E90A2303F0B3
:10291000CDFE2A46334604F0E9F8D4E9082303F053
:10292000C5FE2A46334604F0E1F8D4E9062303F055
:10293000BDFE2A46334604F0D9F8D4E9042303F057
:10294000B5FE2A46334604F0D1F8D4E9022303F059
:10295000ADFE2A46334604F0C9F8D4E90023BDE8A9
:10296000F04103F0A3BE012204F06DBF03F09EBE50
:10297000002213461046114603F048BF024A0020C9
:10298000110704F060BF000001FDFFFF30380A2886
:1029900001D2012070470020704700BF704700003F
:1029A0002DE9FE4F06460F460025684601F0DCF98A
:1029B000002442E056F8240057F82410A0EB010A46
:1029C000BAF1000F01DB514601E0CAF100010846EF
:1029D00004F032FD83464FF08F4104F0FBFB80464C
:1029E0005DF82400002104F0B7FC16D05DF8241037
:1029F000404604F0EFFB82464FF07E5104F07AFE31
:102A0000814629F0004A0F48416A504604F040FED2
:102A100012D20120A04005430EE00A48C169404699
:102A200004F036FD05D30748016A404604F030FE45
:102A300002D20120A0400543641C032CBADB2846C7
:102A4000BDE8FE8FFC7800082DE9F04D8D4F21F098
:102A5000004A86B005460C46BA452ADBAAEB0700B9
:102A600028430AD08848824501DC1AD1CDB106B08E
:102A70002846BDE8F04DFFF776BF844A844B2846D0
:102A800004F034F807460E46824A834B2846214616
:102A900004F02CF806B03A463346BDE8F04D03F09A
:102AA00005BE0120FDF75EFD06B0BDE8F04DFFF765
:102AB0005FBF7A48824542DABAF1795F0BDA28467D
:102AC000FFF7E8FE042808BFFFF758FF284606B0C6
:102AD0002146BDE8F08D2A460B46104604F006F864
:102AE000834602466E480E460B4606217844FFF7A1
:102AF000E5FE5A46334603F0F9FF804669488A46A8
:102B00005A46334604217844FFF7D8FE5A463346E6
:102B100003F0ECFF00223B4603F0C8FD02460B46E3
:102B20004046514603F072FE2A46234603F0DEFF7C
:102B300006B02A462346BDE8F04D03F0B7BD28464F
:102B400024F0004100223D463B4604F0CDF84FF012
:102B5000FF3204F078FE0646024653480F460B4605
:102B600006217844FFF7AAFE32463B4603F0BEFF3B
:102B7000CDE900014D4832463B4604217844FFF739
:102B80009DFE32463B4603F0B1FF00222B4603F088
:102B90008DFD834602913046394603F09DF880460C
:102BA00043480D46504517DCDDE900015A46029BBB
:102BB00003F02CFE42462B4603F098FF42462B467C
:102BC00003F074FD012204F03EFE304A304B04F065
:102BD0007DF9304A304B4CE04FF0000A52460B462C
:102BE000404603F063FDCDE9031052462B461046E4
:102BF000194603F07BFF32463B4604F075F8DDE9E9
:102C0000033203F003FE06460F46DDE900015A4693
:102C1000029B03F0FBFD83460091012230463946BA
:102C200004F011FE194A1A4B04F05EF806460F46EE
:102C300001224046294604F006FE5A46009B03F056
:102C400055FF32463B4604F041F906460F46012245
:102C50005046294604F0F7FD0E4DDFF858802A460D
:102C6000434604F041F832463B4604F03DF82A461C
:102C7000434604F039F8002CD8BF81F0004106B07B
:102C8000BDE8F08D0000F03F0000F07F075C1433DA
:102C900026A6913C182D4454FB21F93F0000E03F4B
:102CA000405A0000565A0000CA590000E05900007E
:102CB0003333EF3FFB21E93F2DE9F84F04460D4642
:102CC00021F0004000917349814211DC7249884231
:102CD00001DC06D12CB120462946BDE8F84FFFF7AC
:102CE00042BE6E48002DCCBF6D496E49BDE8F88FDD
:102CF0006D49814211DD6D498142D8BF4FF0FF36E9
:102D00006DDD20462946FFF7C5FD042808BFFFF703
:102D100035FE20462946BDE8F88F6549654F25F008
:102D20000045814233DD6449814219DD0026324687
:102D30004FF080432046294603F0B8FC80468A467F
:102D400001222046294604F07EFD00223B4604F085
:102D5000BDF84246534603F059FD04460D463EE099
:102D600001260022BA463B462046294603F09EFC37
:102D700080460F46002253462046294604F0A6F816
:102D800042463B4603F042FD04460D4627E04B49D0
:102D900081421BDDDFF828A102260022534620468F
:102DA000294603F0A3FE00223B4603F07FFC804649
:102DB0000F46002253462046294604F087F8424633
:102DC0003B4603F023FD04460D4608E00326224659
:102DD0002B4600203B4903F019FD04460D462246D0
:102DE0002B461046194603F081FE8B46824602466A
:102DF0000B4603F07BFE07460246334888460B46E7
:102E000006217844FFF75AFD52465B4603F06EFEFA
:102E100082462E488B463A46434605217844FFF7C2
:102E20004DFD3A46434603F061FE02460B46002E36
:102E3000504659460CDA03F039FC22462B4603F083
:102E400055FE01B022462B46BDE8F04F03F04CBFC3
:102E500003F02CFC22462B4603F048FE1C4A7A4421
:102E600002EBC603D3E9002304F030F822462B46D8
:102E700004F02CF8174A7A4402EBC603D3E9002386
:102E800003F032FF009A002AB8BF81F00041BDE88C
:102E9000F88F0000000010440000F07F182D44540B
:102EA000FB21F93FFB21F9BF0000DC3F0000203E81
:102EB0000000F33F0000F03F0000E63F00800340C9
:102EC0000000F83F0000F0BFE2570000A0570000EC
:102ED0003E570000065700002DE9F04D9446CCF116
:102EE000000423F000464CEA0404524F46EAD4742E
:102EF0009A46884621F00042BC4206D8454240EA44
:102F0000050442EAD474BC4204D9BDE8F04D6246DF
:102F1000FFF72CBDAAF14055A5F17F6555EA0C04D9
:102F20000BD0022404EAAA74434DDFF810E144EA0E
:102F3000D87452EA000B04D00CE0BDE8F04DFFF766
:102F4000BBBE002C14BF012CBDE8F08D022C30D08C
:102F5000032C32D056EA0C0B0AD0BE4220D1BA4222
:102F600009D126F0804622F080423346114617E010
:102F700000291ADB25E0DFF8C8B0FB44002C04BFB1
:102F8000DBE90001BDE8F08D012C02BFDBE90001A7
:102F900081F00041BDE8F08D022C0AD0032C0CD04A
:102FA000BA4212D1B8F1000F0BDA23482549BDE827
:102FB000F08D28462449BDE8F08D28467146BDE8CD
:102FC000F08D1D482149BDE8F08D921B12153C2A59
:102FD000C4BF19481D490EDCBAF1000FBEBF12F183
:102FE0003C0F0020014606DB624603F00FFC21F097
:102FF0000041FFF761FE002C08BFBDE8F08D012CF9
:1030000004BF81F00041BDE8F08D114A114B022C44
:1030100007D003F05BFF2A46BDE8F04D0A4B03F0F2
:1030200055BF03F053FF2A46BDE8F04D064B03F0B1
:103030005BBE00000000F07F182D4454FB2109C046
:103040009A560000FB21F9BFFB210940FB21F93F03
:10305000075C143326A6A13C2DE9F0410446E07834
:1030600000F0C006E07800F03F05607800F0010055
:1030700098B1EF102846E91705EB5171C910A5EB7F
:10308000C101491C01F0FF080B48006820B10A4843
:10309000414602683846904700BF607800F008005B
:1030A00030B10548406818B1B011034A51688847EB
:1030B0000020BDE8F0810000AC00002010B56FF0EA
:1030C0000400FFF76BF80A4800680A49B0FBF1F00A
:1030D000094908700846007800EB4001C1EBC010B8
:1030E0004FF6FF7101EAC0000449088010BD0000DE
:1030F0000000002000127A00280000202A00002092
:103100000146114A12884A434FF0E0235A610022D7
:103110009A611A46126942F001021A6100BF4FF02B
:10312000E022106900F001021AB100F48032002A96
:10313000F5D04FF0E022126922F001024FF0E023B7
:103140001A6100229A6170472A0000200146114A44
:1031500012784A434FF0E0235A6100229A611A46DE
:10316000126942F001021A6100BF4FF0E0221069BB
:1031700000F001021AB100F48032002AF5D04FF0BD
:10318000E022126922F001024FF0E0231A610022CE
:103190009A6170472800002038B5044664B12020A9
:1031A0008DF8000028208DF8010030208DF80200F5
:1031B00038208DF8030004E0A32204216846FDF7BF
:1031C00049F96A46042140F69E2002F0B3FC02F061
:1031D0009DF838BD3EB5044602208DF80000CA2097
:1031E0008DF80100E3208DF8020009208DF803001E
:1031F0006A460421682002F09DFCA3208DF800009F
:1032000004F0400048B1C0208DF80100C8208DF8BE
:103210000200C2208DF8030006E0A3208DF8010013
:103220008DF802008DF8030004F4C07048B1C4208A
:103230008DF80400CC208DF80500C6208DF806001E
:1032400006E0A3208DF804008DF805008DF8060037
:10325000A3208DF807008DF808008DF809006A4654
:103260000A2140F6A72002F065FC04F0030018B123
:1032700020208DF8000002E0D8208DF800006A467A
:10328000012140F6B62002F055FC04F0200018B1F0
:10329000012000F0ADF802E0002000F0A9F804F4ED
:1032A000C07008B304F4807060B1B2208DF80000E3
:1032B0008B208DF80100B6208DF802009B208DF840
:1032C00003000BE0B0208DF8000080208DF8010095
:1032D000B4208DF8020090208DF803006A46042186
:1032E00040F6A22002F026FC04F0010020B3F820F2
:1032F0008DF800006A4601214FF40B6002F01AFCC1
:10330000FA21072000F02CFC072000F0F3FB01203D
:1033100000F013FC642000F0F3FC4FF4FA7000F0AE
:1033200002FDC821304800F0A3FB282000F0BCFBC0
:103330000A2000F0CCFB08E0D8208DF800006A4697
:1033400001214FF40B6002F0F5FB04F0020018B10C
:10335000D9208DF8000002E0D8208DF800006A46E0
:10336000012140F23D7002F0E5FB04F0040018B1C9
:10337000012000F069F802E0002000F065F804F098
:10338000100018B10120FFF707FF02E00020FFF74F
:1033900003FF44F008001549488101F0B7FF002001
:1033A0001249887304F0400018B10846807B801DE4
:1033B000887304F4C07020B10C48807B801D0B49D9
:1033C000887304F0140020B10848807B103007494E
:1033D000887304F0030020B10448807B001D03497A
:1033E000887300203EBD000009E3CA02AC00002043
:1033F0003EB504466CB10EA1D1E900208968CDE943
:10340000002002916A4609214FF4976002F092FB76
:103410003EBD0AA2D2E900109268CDE901020091F6
:103420006A4609214FF4976002F084FBF0E7000040
:10343000B8AAB38DB4980D355D000000B8AAAAAA49
:10344000B088C3C5C700000038B5044664B1C020C9
:103450008DF80000C2208DF80100C4208DF8020014
:10346000C6208DF8030004E08B2204216846FCF797
:10347000F1FF6A46042140F6982002F05BFB01F060
:1034800045FF38BD10B5C8234FF48062024940F6AD
:10349000F63001F0CFFD10BD247900082DE9F04F82
:1034A0008DB00746884615469946DDE9166B00241F
:1034B000002030806B49887B5A4605A901F086FEC2
:1034C00018B1601E0DB0BDE8F08F6648807A00F03C
:1034D0001400002867D09DF8140000069DF8151010
:1034E00040EA01409DF8161040EA01209DF81710AF
:1034F000084328609DF8180000069DF8191040EA5E
:1035000001409DF81A1040EA01209DF81B10084365
:1035100068609DF81C0000069DF81D1040EA0140FF
:103520009DF81E1040EA01209DF81F100843A86076
:103530009DF8200000069DF8211040EA01409DF80A
:10354000221040EA01209DF823100843E86004F1AE
:103550001000C4B22868001401906868001402903A
:10356000A86800140390E868001404900198404390
:10357000029901FB0100039901FB0100049901FB81
:10358000010ABAF1706F02DBBAF1885F05DD01F064
:10359000BDFE00203080401E94E7B6F9000040F4E4
:1035A0008070308000BF2F48807A00F0400020B348
:1035B00005A9601C085C095D40EA012000B2A8F87A
:1035C000000005A9E01C095C05AAA01C105C41EAEA
:1035D000002000B2A8F8020005A9601D095C201DAA
:1035E000105C41EA002000B2A8F80400A01DC4B29B
:1035F000B6F9000040F0080030801A48408900F415
:10360000C07008B305A9601C085C095D40EA012090
:1036100000B2388005A9E01C095C05AAA01C105C5A
:1036200041EA002000B2788005A9601D095C201DD8
:10363000105C41EA002000B2B880A01DC4B2B6F907
:10364000000040F0700030800648807A00F00300EF
:1036500018B105A90819FFF7FFFC484600F076FFEE
:1036600000202FE7AC00002070B588B0064601A806
:1036700001F034FBBDF804000021C90341EA5045C4
:10368000C4034448007A00F0030056F82000059077
:103690004048007A00F0040010B1059840420590BF
:1036A0003C48007AC0F3C10056F820000690394823
:1036B000007A00F0200010B106984042069035488C
:1036C000007AC0F3811056F8200007903148008935
:1036D00000F4807010B10798404207900598C11718
:1036E000A0FB042301FB043100FB0510810041EA2B
:1036F000927005900698C117A0FB042301FB0431CA
:1037000000FB0510810041EA927006900798C117EE
:10371000A0FB042301FB043100FB0510810041EAFA
:10372000927007900598000E8DF808000598000C1F
:103730008DF809000598000A8DF80A000598C0B2B6
:103740008DF80B000698000E8DF80C000698000C02
:103750008DF80D000698000A8DF80E000698C0B28C
:103760008DF80F000798000E8DF810000798000CD8
:103770008DF811000798000A8DF812000798C0B262
:103780008DF8130002AA0C214FF4257002F0D2F933
:1037900008B070BDAC00002030B585B0044616A25C
:1037A00007CA02AB07C3C82C03DD4FF0FF3005B0DA
:1037B00030BDC82090FBF4F0401E85B2280A8DF879
:1037C0000000E8B28DF801006A46022140F216209E
:1037D00002F0B0F910B14FF0FF30E8E702AA0C2177
:1037E00040F6C12002F0A6F910B14FF0FF30DEE73D
:1037F000044884810020DAE7FEF2ABC4AAF1DFDFDF
:10380000BBAFDFDFAC0000201FB504464848007A9C
:1038100000F0030054F8200001904548007A00F0C1
:10382000040010B10198404201904148007AC0F371
:10383000C10054F8200002903D48007A00F02000BA
:1038400010B10298404202903948007AC0F38110CA
:1038500054F8200003903648008900F4807010B1BD
:103860000398404203903349019880FB0101800F87
:1038700040EA810001902F49029880FB01108200EC
:1038800042EA917002902B49039880FB011082005C
:1038900042EA917003900198000E8DF800000198A3
:1038A000000C8DF801000198000A8DF802000198C3
:1038B000C0B28DF803006A4604214FF4747002F020
:1038C00039F918B14FF0FF3004B010BD0298000E66
:1038D0008DF800000298000C8DF801000298000A93
:1038E0008DF802000298C0B28DF803006A460421E8
:1038F0004FF4757002F01EF910B14FF0FF30E3E79E
:103900000398000E8DF800000398000C8DF801005C
:103910000398000A8DF802000398C0B28DF80300E6
:103920006A4604214FF4767002F004F9CCE70000F7
:10393000AC00002009E3CA0210B586B0044647A0D7
:103940000068039046A00068029046A000680190BD
:1039500045A00068009004F0030003A9085C8DF8FE
:10396000140003A8C4F3C101405C8DF8150003A83E
:10397000C4F38111405C8DF8160004F0030002A925
:10398000085C8DF8100002A8C4F3C101405C8DF8FA
:10399000110002A8C4F38111405C8DF8120005AA41
:1039A000032140F2264002F0C5F818B14FF0FF3075
:1039B00006B010BD04AA032140F22A4002F0BAF872
:1039C00010B14FF0FF30F3E7019805900098049094
:1039D00004F0040058B19DF8140040F001008DF887
:1039E00014009DF8100040F001008DF8100004F064
:1039F000200058B19DF8150040F001008DF8150029
:103A00009DF8110040F001008DF8110004F4807061
:103A100058B19DF8160040F001008DF816009DF891
:103A2000120040F001008DF8120005AA03214FF4A6
:103A3000886002F07FF810B14FF0FF30B8E704AAB9
:103A4000032140F2314002F075F810B14FF0FF3021
:103A5000AEE7064804810020AAE700004CCD6C00C8
:103A60000CC92C003656760026466600AC000020B5
:103A7000F8B505460E464FF47A7095FBF0F000FB62
:103A800006F4200E8DF80000200C8DF80100200AAD
:103A90008DF80200E0B28DF803006A4604214FF46D
:103AA000AE7002F047F8F8BD38B50446052094FB27
:103AB000F0F084B220128DF80000E0B28DF8010021
:103AC0006A4602214FF4AD7002F034F838BD38B5C3
:103AD0000446052094FBF0F084B220128DF800001B
:103AE000E0B28DF801006A4602214FF4AC7002F09A
:103AF00021F838BD38B504460020009004F00100DC
:103B000020B19DF8000040F03000009004F0020069
:103B100020B19DF8000040F00C00009004F004007B
:103B200020B19DF8000040F0030000906A4601219A
:103B30004FF4A47001F0FEFF38BD38B50446012CE7
:103B400001DA012402E0042C00DD0424601EC0B26E
:103B500000906A46012140F24F1001F0EBFF38BDA2
:103B60002DE9FC4706460F4606F0070010B1B7F5F1
:103B7000C86F03DD4FF0FF30BDE8FC87384603F027
:103B800073FC8146594903F025FB8046684601F0E5
:103B90007FF89DF80000022806D0042816D00828D7
:103BA00026D0102848D135E04FF08D41404603F033
:103BB000A3FC814603F020FC84B24D49404603F04B
:103BC0009BFC814603F018FC85B238E04FF08C4135
:103BD000404603F091FC814603F00EFC84B2454957
:103BE000404603F089FC814603F006FC85B226E0DE
:103BF0004FF08B41404603F07FFC814603F0FCFB15
:103C000084B23D49404603F077FC814603F0F4FB63
:103C100085B214E04FF08A41404603F06DFC8146C6
:103C200003F0EAFB84B23549404603F065FC814667
:103C300003F0E2FB85B202E04FF0FF309CE700BFEB
:103C400020128DF80400E0B28DF8050028128DF8DE
:103C50000600E8B28DF8070006F00100A0B101AA45
:103C600002214FF4EA7001F065FF10B14FF0FF3010
:103C700082E70DF1060202214FF4927001F05AFF23
:103C800010B14FF0FF3077E706F00200A0B101AAB3
:103C900002214FF4EC7001F04DFF10B14FF0FF30F6
:103CA0006AE70DF1060202214FF4947001F042FF21
:103CB00010B14FF0FF305FE706F00400A0B101AA99
:103CC00002214FF4EE7001F035FF10B14FF0FF30DC
:103CD00052E70DF1060202214FF4967001F02AFF1F
:103CE00010B14FF0FF3047E7002045E700004843A0
:103CF000000040460000C045000040450000C044B0
:103D000038B50446052094FBF0F085B228128DF8F2
:103D10000000E8B28DF801006A4602214FF4EF700E
:103D200001F008FF38BD38B50446052094FBF0F0DB
:103D300085B228128DF80000E8B28DF801006A46BD
:103D400002214FF4ED7001F0F5FE38BD00BF054AC9
:103D5000128802F04002002AF9D0C2B2014B1B1DAA
:103D60001A807047004400407CB5054628494968E0
:103D7000087801AB04220D21FDF751FF08B107209F
:103D80007CBD9DF80700C0F301109DF8041001F000
:103D9000E00140EAE1008DF800009DF80700C0F363
:103DA00081009DF8051001F0E00140EAE1008DF886
:103DB00001009DF8070000F003009DF8061001F0D7
:103DC000E00140EAE1008DF8020000241CE01DF84B
:103DD000040018B9002045F8240013E00D4845F808
:103DE000240006E055F824000B4903F085FB45F854
:103DF00024001DF80400401EC0B20DF80400002885
:103E0000F0D100BF601CC4B2032CE0DB0020B7E798
:103E1000340000207B14AE3E1D5A843F2DE9F04F44
:103E200087B005460C46914601208DF81000002011
:103E30008DF81100FE4A1268917CFD4A5268107894
:103E400004AB0222FDF791FF20B14FF0FF3007B025
:103E5000BDE8F08FC820FFF753F900208DF810005F
:103E6000F34A1268D17BF24A5268107804AB0122FF
:103E7000FDF77BFF10B14FF0FF30E8E7EC4A126826
:103E80005179EB4A5268107804AB0122FDF76DFFBF
:103E900010B14FF0FF30DAE7E54A1268917CE44A4E
:103EA0005268107804AB0122FDF75FFF10B14FF0AC
:103EB000FF30CCE7DE4A1268D17DDD4A52681078C7
:103EC00004AB0122FDF751FF10B14FF0FF30BEE708
:103ED000D74A12681179D64A5268107804AB012289
:103EE000FDF743FF10B14FF0FF30B0E70C208DF825
:103EF0001000CF4A12681179CD4A5268107804AB8D
:103F00000122FDF732FF10B14FF0FF309FE70F2085
:103F1000FFF7F6F8C648806A407A8DF81000C44A68
:103F200012689178C24A5268107804AB0122FDF7FA
:103F30001CFF10B14FF0FF3089E7BD48806A007A5E
:103F40008DF81000BA4A12685178B94A5268107850
:103F500004AB0122FDF709FF10B14FF0FF3076E707
:103F6000B9F1000F07D0B248806A807A40F0E000D3
:103F70008DF8100004E0AE48806A807A8DF8100059
:103F8000AB4A12689179AA4A5268107804AB0122B0
:103F9000FDF7EBFE10B14FF0FF3058E7B9F1000F1D
:103FA00007D0A348806AC07A40F0E0008DF8100086
:103FB00003E0A048C07A8DF810009D4A1268D179BC
:103FC0009B4A5268107804AB0122FDF7CEFE10B177
:103FD0004FF0FF303BE7B9F1000F02D0C820FFF7E8
:103FE0008FF840208DF81000914A12681179904A9C
:103FF0005268107804AB0122FDF7B7FE10B14FF004
:10400000FF3024E778208DF81000894A1268517932
:10401000874A5268107804AB0122FDF7A6FE10B162
:104020004FF0FF3013E783498889FFF769F80020D4
:104030008DF810007E4A126851797D4A52681078D6
:1040400004AB0122FDF791FE10B14FF0FF30FEE608
:10405000774A1268917A764A5268107804AB022245
:10406000FDF7DDFD10B14FF0FF30F0E69DF81100D7
:104070009DF8101040EA012B0C209BFBF0F0C6B21B
:104080000020A86068602860A060606020608246B0
:1040900065E0674A1268D17A654A5268107804ABC5
:1040A0000C22FDF7BCFD10B14FF0FF30CFE69DF8BC
:1040B00011009DF8101040EA012000B2ADF8080090
:1040C0009DF813009DF8121040EA012000B2ADF8EF
:1040D0000A009DF815009DF8141040EA012000B276
:1040E000ADF80C00BDF90810206808442060BDF947
:1040F0000A10606808446060BDF90C10A0680844AC
:10410000A0609DF817009DF8161040EA012000B24B
:10411000ADF800009DF819009DF8181040EA012044
:1041200000B2ADF802009DF81B009DF81A1040EA9D
:10413000012000B2ADF80400BDF900102868084461
:104140002860BDF90210686808446860BDF9041071
:10415000A8680844A8600AF1010000F0FF0AB2450F
:1041600097DB3448D0F800C02868C117090441EA39
:1041700010410704624600233846FCF736F8324601
:104180000023CDE90201FCF730F828602948D0F877
:1041900000C06868C117090441EA1041070462467B
:1041A00000233846FCF721F832460023CDE902010E
:1041B000FCF71BF868601F48D0F800C0A868C1175A
:1041C000090441EA10410704624600233846FCF71F
:1041D0000CF832460023CDE90201FCF706F8A8608E
:1041E0001448D0F804C02168C817000440EA1148F8
:1041F0000F046246002338464146FBF7F6FF32467D
:104200000023CDE90201FBF7F0FF20600948D0F858
:1042100004C06068C117090441EA104107046246FE
:1042200000233846FBF7E1FF3246002304E000009C
:1042300034000020FC780008CDE90201FBF7D5FF2F
:1042400060601148D0F804C0A068C117090441EAB1
:1042500010410704624600233846FBF7C6FF32468A
:104260000023CDE90201FBF7C0FFA060A068002891
:1042700004DDA068A0F58030A06003E0A06800F530
:104280008030A0600020E2E5FC7800082DE9FC5FAA
:1042900006460F4600253D494968087801AB0322D0
:1042A0000D21FDF7BCFC10B10720BDE8FC9F9DF877
:1042B000040000F01F008DF804009DF8050000F0D8
:1042C0001F008DF805009DF8060000F01F008DF816
:1042D0000600002456E056F8240057F82410A0EBFE
:1042E000010BBBF1000F01DB594601E0CBF10001EE
:1042F000084603F0A1F84FF08F41009002F06AFFEA
:10430000814601A8005D68B32149086803F0ACF854
:10431000834659461F4802F05DFF804604E01E496F
:10432000404603F0E9F8804601A8005D401EC0B297
:1043300001A908550028F2D14146484602F04AFF3B
:1043400083464FF07E5103F0D5F982462AF0004BA8
:104350000F488169584603F09BF912D20120A04012
:1043600005430EE00A480169484603F091F805D379
:1043700007484169484603F08BF902D20120A0406A
:104380000543641C032CA6DB28468EE7340000207E
:10439000FC78000800B04C4554E3853F10B5044656
:1043A000204600F00FF80346E01C00F00BF843EA4B
:1043B000C00083B2A01D00F005F843EA801083B26C
:1043C000184610BD014691F90020002A01DD0020A9
:1043D0001EE091F90020002A01DA042018E091F98A
:1043E0000120002A01DD012012E091F90120002ABC
:1043F00001DA05200CE091F90220002A01DD0220FB
:1044000006E091F90220002A01DA062000E00720E8
:104410007047000008B5FDF7DAFCFDF797F9FDF7E6
:10442000D3FEFEF74BFE4FF4A060FDF791FD40F286
:10443000CF2140F2CF70FDF7F7FE01210820FDF7F4
:10444000A3FD01212020FDF79FFD01211020FDF794
:104450009BFD01210420FDF797FD0420ADF800002D
:1044600048208DF8030003208DF802006946334888
:10447000FDF788F80820ADF8000048208DF803000B
:1044800003208DF8020069462D48FDF77BF81020C7
:10449000ADF8000048208DF8030003208DF80200DD
:1044A00069462748FDF76EF82020ADF80000482047
:1044B0008DF8030003208DF8020069462048FDF7BF
:1044C00061F84FF48050ADF8000048208DF80300EB
:1044D00003208DF8020069461A48FDF753F84FF49F
:1044E0008060ADF8000048208DF8030003208DF8AF
:1044F000020069461348FDF745F84FF40060ADF837
:10450000000048208DF8030003208DF80200694662
:104510000C48FDF737F84FF48040ADF80000482014
:104520008DF8030003208DF8020069460648FDF768
:1045300029F801E000F00CF8FCE70000001401404D
:10454000000C0140001001400008014070470000CD
:104550002DE9FF470220FDF7FBFCFEF7AFFD4FF40E
:10456000E13001F0DFFBCEA0FBF764FEFDF7DAFAE5
:1045700030B1CEA0FBF75EFE002004B0BDE8F087AE
:1045800000F036FB20B1CFA0FBF754FE0020F4E78B
:1045900085E1D14AD149D24800F018FA68B9FDF74F
:1045A00041F9D0490880D04AD049D148FDF7EAF80E
:1045B000D04AD149D148FDF70DF9C748006802F04B
:1045C0006FFD04460D46C548006802F069FD0646C9
:1045D0000F46C348006802F063FD804642460B4622
:1045E000C7A0CDE90067CDE90245FBF723FECCA0CB
:1045F000FBF720FE0821CC48FDF798F8F8B9002019
:10460000CA490860CA490860CA4908604FF4F061A5
:10461000C948FEF71CF84FF49670FEF771FD40F2A2
:10462000D661C548FEF711F84FF49670FEF768FDA5
:1046300000BF0821BC48FDF779F80128F9D12021F5
:10464000B948FDF773F800BB0120B84908600020A5
:10465000B7490860B74908604FF4F061B648FDF704
:10466000F6FF4FF49670FEF74BFD40F2D661B2486C
:10467000FDF7EBFF4FF49670FEF742FD00BF2021DF
:10468000A948FDF753F80128F9D14FF48051AB4800
:10469000FDF74CF810BB0520A44908600120A4498F
:1046A00008600020A649086000210846FDF796FB37
:1046B0004FF4E161A048FDF7C8FF4FF49670FEF794
:1046C0001FFD40F244719C48FDF7C1FF00BF4FF44D
:1046D00080519A48FDF72AF80128F8D10421994819
:1046E000FDF724F8E0B904209049086001209149C1
:1046F00008608F4908604FF4E1618F48FDF7A5FF1E
:104700004FF49670FEF7FCFC40F244718A48FDF7C6
:104710009EFF00BF04218B48FDF708F80128F9D15E
:1047200010218148FDF702F8E0B904207F490860B4
:104730000120804908607E4908604FF4E1617E48AD
:10474000FDF783FF4FF49670FEF7DAFC40F24471F8
:104750007948FDF77CFF00BF10217348FCF7E6FFA6
:104760000128F9D14FF400617448FCF7DFFF70B9FC
:1047700002206E49086001206E4908606C4908609B
:1047800000BF10216848FCF7D1FF0128F9D14FF490
:1047900000616A48FCF7CAFF70B9032063490860EA
:1047A0000120644908606249086000BF10215E482A
:1047B000FCF7BCFF0128F9D15C480068C0B96FF074
:1047C00062016320FDF70AFB5F494348006802F07D
:1047D0005FFE0DD20120574908600220534908604E
:1047E00063210846FDF7FAFA40F6B830FEF788FC78
:1047F0004E480068012817D163214842FDF7EEFAC0
:1048000052493548006802F043FF0DD20120494962
:10481000086003204549086063210846FDF7DEFA79
:1048200040F6B830FEF76CFC42480068012836D1EB
:104830003F480068012801D101F01CFB3C4800689A
:1048400068BB63215F20FDF7C9FA4149244800682D
:1048500002F01EFF23D23548006802280DD16421E2
:104860004842FDF7BBFA3B491B48006802F010FFC5
:1048700015D201202E49086011E02C480068032859
:104880000DD16FF063016420FDF7A8FA3249124898
:10489000006802F0FDFD02D201202549086078E69B
:1048A000B3CCD0F2BFAACABC0D0A00004D50553699
:1048B000303530B3F5CABCBBAFB4EDCEF3A3A10A1B
:1048C00000000000444D50B3F5CABCBBAFB4EDCE00
:1048D000F3A3A10A0000000078000020740000206B
:1048E0007000002088000020800000207E00002052
:1048F0007C00002086000020840000208200002030
:104900000D0A70697463683A25662020726F6C6CBA
:104910003A256620207961773A25660D0A00000065
:104920006D6F76650D0A0000000C0140A0000020AC
:104930009C00002094000020000400400010014072
:10494000980000200014014000003CC200003842E2
:10495000000050C10000F0410000D8C170B504460D
:10496000002624F00104184890F8240008B1002023
:1049700070BD1548807A10B94FF0FF30F8E7124843
:10498000057C807A2040104908740846007CA042CB
:1049900002D04FF0FF3600E0002614B90A48007D2F
:1049A00018B1012001F050F902E0002001F04CF9AB
:1049B0003CB100F0ABFC20B1034805744FF0FF3070
:1049C000D6E73046D4E70000340000202DE9F04F50
:1049D00099B004460D4616464FF07E574FF000083A
:1049E0004FF000094FF0000A12A813A918AB0EAA45
:1049F000CDE9001014A916A8FEF750FD18B101204A
:104A000019B0BDE8F08FBDF84C0000F480700028AC
:104A10007ED00E9802F010FD83464FF09D4102F0CB
:104A2000D9FB07460F9802F007FD83464FF09D41E2
:104A300002F0D0FB8046109802F0FEFC83464FF057
:104A40009D4102F0C7FB8146119802F0F5FC8346B8
:104A50004FF09D4102F0BEFB824639464FF0804048
:104A600002F04AFD4946059002F046FD4146079096
:104A70004FF0404002F040FD5146059002F03CFDF1
:104A80000690079902F038FB834602F009FBCDE956
:104A90000801FDF7D9FF4FF06632544BCDE90A010A
:104AA00002F024F8CDE90C0101F0CEFD206049466A
:104AB0004FF0804002F020FD4946029002F01CFDBC
:104AC000414604904FF0404002F016FD41460290EE
:104AD00002F012FD0390049902F00CFE83464FF0A1
:104AE0007E5102F009FB059002F0DAFACDE90801E7
:104AF00039464FF0804002F0FFFC4146039002F03F
:104B0000FBFC494604904FF0804002F0F5FC00E0C9
:104B100068E05146039002F0EFFC8346049902F0EE
:104B2000EBFA059002F0BCFACDE90601DDE90823B5
:104B3000FEF7D2F94FF066322C4BCDE90A0101F0B5
:104B4000D5FFCDE90C0101F07FFD286051465046AC
:104B500002F0D2FC49460490484602F0CDFC4146A2
:104B60000390404602F0C8FC39460190384602F0F6
:104B7000C3FC0090019902F0BFFA0290039902F081
:104B8000B9FD8346049902F0B5FD059002F088FA5C
:104B9000CDE908015146384602F0AEFC4946049082
:104BA000404602F0A9FC0390049902F0A5FA4FF0E8
:104BB0008041059002F0A0FC834602F071FACDE935
:104BC0000601DDE90823FEF787F94FF06632074B4F
:104BD000CDE90A0101F08AFFCDE90C0101F034FDB5
:104BE000306001E002200BE7002009E766A64C4098
:104BF00070B50024FCF776FE00F024F9002840D1BF
:104C0000782000F02FFFC4B20CB1012070BD7820D5
:104C1000FFF7A4FEC4B20CB10220F7E7642000F055
:104C2000D3FEC4B20CB10320F0E7FEF72BFCC4B2F4
:104C30000CB10420EAE71548FFF7B0FB0546FEF784
:104C40007BFEC4B20CB10520E0E740F27310FEF722
:104C5000C1FAC4B20CB10620D8E76420FEF79CFD6F
:104C6000C4B20CB10720D1E700F0A4FF04460CB198
:104C70000820CBE7012000F0A3FDC4B21CB109203D
:104C8000C4E70A20C2E70020C0E70000600000205F
:104C900001461148407A30B1012807D0022808D0D7
:104CA00003280CD108E0022008700BE004200870F3
:104CB00008E00820087005E01020087002E04FF0BE
:104CC000FF30704700BF0448C07C18B10878400628
:104CD000000E08700020F4E734000020014613485D
:104CE000407A30B1012808D002280AD0032810D118
:104CF0000BE04FF4804008800EE041F69C70088085
:104D00000AE04FF48050088006E04FF4006008800D
:104D100002E04FF0FF30704700BF0448C07C10B184
:104D20000888401008800020F5E7000034000020CB
:104D300001460248007C08700020704734000020C3
:104D400001460F48007A30B1012807D0022809D067
:104D500003280FD10AE0FA2008800EE04FF4FA7021
:104D600008800AE04FF47A70088006E04FF4FA6099
:104D7000088002E00020088000BF00BF00207047CC
:104D80003400002001460E48007A30B1012807D0D7
:104D9000022808D003280CD108E00A4808600BE07C
:104DA0000948086008E00948086005E0084808600C
:104DB00002E04FF0FF30704700BF0020FBE700002B
:104DC00034000020000003430000834233330342D9
:104DD0003333834101461248C07A082817D2DFE8EE
:104DE00000F01704070A0D101318BC20088013E008
:104DF0006220088010E02A2008800DE0142008803E
:104E00000AE00A20088007E00520088004E000BFCF
:104E100000BF0020088000BF00BF002070470000D6
:104E2000340000200146064890F8240010B14FF0ED
:104E3000FF3070470248C08908800020F9E7000071
:104E4000340000201CB580208DF80000654A1268EF
:104E5000917C644A526810786B460122FCF785FF0A
:104E600010B14FF0FF301CBD6420FEF749F900205F
:104E70008DF800005B4A1268917C5A4A526810789B
:104E80006B460122FCF771FF10B14FF0FF30EAE7EB
:104E9000544A1268917D534A526810786B46062234
:104EA000FCF7BDFE10B14FF0FF30DCE79DF80500C8
:104EB000C007400F9DF8031001F0010140EA4100D6
:104EC0009DF8011001F0010140EA010494B1012CA8
:104ED00003D101214348C17431E0022C03D10021E8
:104EE0004048C1742BE021463FA0FBF7A3F94FF0E7
:104EF000FF30B8E73B4A1268D1783A4A52681078D6
:104F00006B460122FCF78BFE10B14FF0FF30AAE791
:104F10009DF8000000F00F042CB93D48FBF78AF91A
:104F20004FF0FF309FE7042C06D13AA0FBF782F93F
:104F300001212C48C17402E000212A48C174FF21DC
:104F400028488172FF2027490872FF2125484172B5
:104F5000C1724FF6FF71C181FF210174817401217B
:104F6000017380F82210002180F82310417501752B
:104F70001630016041608160163880F8241080F896
:104F80002510C1844FF4FA6000F062FC10B14FF0BC
:104F9000FF3068E7022000F02BFB10B14FF0FF302C
:104FA00061E72A2000F0CEFC10B14FF0FF305AE745
:104FB000322000F009FD10B14FF0FF3053E7002020
:104FC000FFF7CCFC10B14FF0FF304CE7002000F0B1
:104FD00051FB10B14FF0FF3045E7002000F042FDDB
:104FE000002040E734000020556E737570706F72BA
:104FF00074656420736F6674776172652070726F78
:1050000064756374207265762025642E0A000000A2
:10501000B486000848616C662073656E73697469B4
:1050200076697479207061727420666F756E642E73
:105030000A0000002DE9F04385B005460E46904673
:105040009946294890F8250020B14FF0FF3005B06F
:10505000BDE8F08316B94FF0FF30F8E7002423E0F5
:10506000281B102801DD102000E0281B87B2321910
:105070003946204600F05EFD10B14FF0FF30E6E704
:1050800001AA3946204600F001F910B14FF0FF3077
:10509000DDE730193A4601A9FBF7B0F910B16FF01E
:1050A0000100D4E7E01984B2AC42D9DB4FEA2820F2
:1050B0008DF8000008F0FF008DF801000A4A126820
:1050C000917E094A526810786B460222FCF74DFE29
:1050D00010B14FF0FF30BAE70121034880F82510E6
:1050E000A0F826900020B2E73400002038B504462E
:1050F000282C02DD4FF0FF3038BDDCB9002000F075
:10510000EBFB00208DF8000007208DF801002E4AEF
:105110001268917C2C4A526810786B460222FCF788
:1051200024FE10B14FF0FF30E6E70021264801755C
:105130000020E1E7012000F0CFFB20208DF80000E7
:10514000012C06D100208DF80100052000F0FAFBAB
:1051500017E0052C06DC01208DF80100052000F089
:10516000F1FB0EE0142C06DC02208DF801000A2071
:1051700000F0E8FB05E003208DF80100142000F0AA
:10518000E1FB9DF80100072101EB8010C0B28DF812
:1051900001000D4A1268917C0B4A526810786B46E8
:1051A0000222FCF7E2FD10B14FF0FF30A4E7082126
:1051B0000548817200210173012101750020FFF76C
:1051C000CDFB002098E7000034000020F8B504462D
:1051D0000F4616462C4890F8240010B94FF0FF30C7
:1051E000F8BD2948807A10B94FF0FF30F8E7264A19
:1051F0001268917A244A526810786B460222FCF7B2
:105200000EFD10B14FF0FF30EAE79DF801009DF868
:10521000001040EA0125A54203DA00203070401E4C
:10522000DEE7194840684088B5EB600F17DD164A85
:105230001268517C144A526810786B460122FCF7C0
:10524000EEFC10B14FF0FF30CAE79DF8000000F00F
:10525000100020B100F05AF86FF00100C0E7E2B290
:10526000094B1B68D97A084B5B6818783B46FCF7FA
:10527000D6FC10B14FF0FF30B2E795FBF4F0401EC2
:1052800030700020ACE7000034000020F8B5044680
:105290000D46164616B94FF0FF30F8BD1A48807A11
:1052A00010B94FF0FF30F8E720128DF80000E0B29F
:1052B0008DF801009DF80100284413494968498987
:1052C000884202DD4FF0FF30E7E70F4A1268117E97
:1052D0000D4A526810786B460222FCF746FD10B169
:1052E0004FF0FF30D9E7EAB2074B1B68597D064BF8
:1052F0005B6818783346FCF792FC10B14FF0FF3032
:10530000CBE70020C9E700003400002008B5704852
:10531000807A10B94FF0FF3008BD002000906C4A31
:105320001268D17B6A4A526810786B460122FCF7FA
:105330001CFD10B14FF0FF30EEE7654A126851795D
:10534000634A526810786B460122FCF70EFD10B1DB
:105350004FF0FF30E0E75E4A126811795C4A52680C
:1053600010786B460122FCF700FD10B14FF0FF30C2
:10537000D2E7574890F82400002853D00C20009022
:10538000534A12681179524A526810786B460122CA
:10539000FCF7EBFC10B14FF0FF30BDE73220FDF71A
:1053A000AFFEC02000904A48807A00F0010020B192
:1053B0009DF8000040F020000090454A12681179E5
:1053C000434A526810786B460122FCF7CEFC10B1BC
:1053D0004FF0FF30A0E73E48407C10B10220009023
:1053E00001E0002000903A4A1268D17B384A5268A6
:1053F00010786B460122FCF7B8FC10B14FF0FF307B
:105400008AE700200090324A12685179304A526887
:1054100010786B460122FCF7A8FC002855D04FF00D
:10542000FF3079E704200090294A12681179284A50
:10543000526810786B460122FCF797FC10B14FF0D0
:10544000FF3069E72248807C20B92148807A00F04B
:10545000010010B94020009001E0602000901C4A3B
:10546000126811791A4A526810786B460122FCF7CB
:105470007CFC10B14FF0FF304EE73220FDF740FECC
:105480001348407C10B10120009001E00020009002
:105490000F4A1268D17B0E4A526810786B4601227F
:1054A000FCF763FC10B14FF0FF3035E7084A126893
:1054B0005179074A52681078054B10330122FCF7E6
:1054C00054FC10B14FF0FF3026E7002024E7000025
:1054D000340000202DE9F04F8DB083460F460220A6
:1054E0000C90424890F8240020B1002000F068F9A8
:1054F000012600E0002603A8FFF722FC05A8FFF71D
:10550000C7FB01A8FFF766FC02A8FFF78BFC374832
:1055100090F80AA004A8FFF70BFC002407E0002283
:1055200039465846FEF77AFC00B902E0641C022CAA
:10553000F5DB00BF022C01D1002528E0002407E0A4
:10554000012206A909A8FEF769FC00B902E0641C63
:10555000022CF5DB00BF022C01D1002517E006A9C3
:105560003846FDF71DFA00F0FF0809A95846FEF776
:105570008DFE00F0FF090025B9F1000F01D145F0C3
:105580000105B8F1000F01D145F0020500BFFF2071
:1055900016490872FF2115484172C1724FF6FF711A
:1055A000C181FF218172017401210173BDF80C00DA
:1055B00000F04EF99DF8140000F01AF8BDF8040050
:1055C00000F0C0F9BDF8080000F0FEF9504600F008
:1055D00049FA9DF81000FFF7C1F916B1012000F05B
:1055E000EFF828460DB0BDE8F08F00003400002031
:1055F00038B504461E48807A10B94FF0FF3038BDE8
:10560000022C06D0042C07D0082C08D0102C0CD16A
:1056100008E0002000900BE00820009008E0102037
:10562000009005E01820009002E04FF0FF30E6E720
:1056300000BF0F48407A9DF80010B0EBE10F01D198
:105640000020DCE70A4A1268D179094A52681078CA
:105650006B460122FCF789FB10B14FF0FF30CEE71B
:105660009DF80000C110024841720020C7E7000009
:105670003400002038B504465048807CA04201D157
:10568000002038BD002C46D04C4A126811794B4A94
:10569000526810786B460122FCF7C1FA10B14FF046
:1056A000FF30EEE79DF8000020F020000090434A14
:1056B00012681179414A526810786B460122FCF752
:1056C00054FB10B14FF0FF30DBE70320FDF718FD6E
:1056D00002200090394890F8220020B19DF8000087
:1056E00040F080000090354890F8230020B19DF8EC
:1056F000000040F030000090304A1268117D2F4ABF
:10570000526810786B460122FCF72FFB002851D01D
:105710004FF0FF30B5E7294A12681179274A5268DD
:1057200010786B460122FCF77AFA10B14FF0FF3087
:10573000A7E72248807A00F0010028B19DF8000018
:1057400040F02000009004E09DF8000020F02000D0
:1057500000901A4A12681179184A526810786B46FC
:105760000122FCF702FB10B14FF0FF3089E7032064
:10577000FDF7C6FC114890F8220010B1802000907F
:1057800001E0002000900D4890F8230020B19DF822
:10579000000040F030000090084A1268117D074A6E
:1057A000526810786B460122FCF7DFFA10B14FF017
:1057B000FF3066E701488474002062E7340000206F
:1057C00038B50446214890F82400A04201D10020B9
:1057D00038BD24B31D4890F8250010B94FF0FF30B4
:1057E000F6E7002000F030FA0020FFF743FF1749EA
:1057F000C88C00F0E9F80020009014494968087846
:105800006B4601222321FCF7B0FA01210F4880F8F2
:105810002410012000F018FAFFF778FD13E00020B3
:1058200000F012FA0948007C00900849496808789D
:105830006B4601222321FCF798FA0021034880F8E7
:105840002410FFF763FD0020C2E7000034000020B1
:1058500038B504461F48807A10B94FF0FF3038BD84
:10586000FA2C09D0B4F5FA7F09D0B4F57A7F09D0C3
:10587000B4F5FA6F0CD108E0002000900BE008208E
:10588000009008E01020009005E01820009002E051
:105890004FF0FF30E3E700BF0E48007A9DF800109C
:1058A000B0EBE10F01D10020D9E70A4A12689179E3
:1058B000084A526810786B460122FCF756FA10B17C
:1058C0004FF0FF30CBE79DF80000C010014908728F
:1058D0000020C4E73400002038B50446184890F88A
:1058E0002300A04201D1002038BD14B13020009027
:1058F00001E0002000901248807C20B19DF800005B
:1059000040F0020000900E4890F8220020B19DF86F
:10591000000040F080000090094A1268117D084A9A
:10592000526810786B460122FCF71FFA10B14FF055
:10593000FF30D9E7024880F823400020D4E7000078
:105940003400002038B504461E48807A10B94FF064
:10595000FF3038BDBC2C02DB0120009015E0622C2A
:1059600002DB0220009010E02A2C02DB03200090D2
:105970000BE0142C02DB0420009006E00A2C02DB72
:105980000520009001E0062000900E48C07A9DF8A6
:105990000010884201D10020DBE70A4A12689178A2
:1059A000084A526810786B460122FCF7DEF910B104
:1059B0004FF0FF30CDE79DF800100248C172002083
:1059C000C7E700003400002038B504462448807A38
:1059D00010B94FF0FF3038BD214890F8240010B1C5
:1059E0004FF0FF30F7E71E48007D50B134B1282C4E
:1059F00004DCE0B2FFF77AFB0020ECE70020FFF7C1
:105A000075FB042C01DA042404E0B4F57A7F01DD8F
:105A10004FF47A744FF47A7090FBF4F0401EC0B2E9
:105A200000900F4A126851780D4A526810786B4600
:105A30000122FCF79AF910B14FF0FF30CBE79DF847
:105A40000000401C4FF47A7191FBF0F081B20448E1
:105A5000C1810146C9894810FFF774FF0020BAE7E9
:105A60003400002038B5044604F0700010B1012065
:105A7000009005E014B10020009001E0402000906B
:105A80002B4A1268917C2A4A526810786B46012290
:105A9000FCF76BF920B1002125488172481E38BD02
:105AA0009DF8000020F04001214801730020009083
:105AB00004F0400020B99DF8000040F00400009080
:105AC00004F0200020B99DF8000040F00200009092
:105AD00004F0100020B99DF8000040F00100009093
